S01D00004E756D62657253797374656D436F6E7665727465722E7372656361
S11300000C942A000C9447000C9447000C9447006D
S11300100C9447000C9447000C9447000C94470040
S11300200C9447000C9447000C9447000C94470030
S11300300C9447000C9447000C9447000C94470020
S11300400C9447000C9447000C9447000C94470010
S11300500C94470011241FBECFE5D8E0DEBFCDBF0E
S113006011E0A0E6B0E0E0EBFFE002C005900D92E5
S1130070A033B107D9F721E0A0E3B1E001C01D929C
S1130080AC35B207E1F70E94A2030C94D6070C9496
S11300900000CF92DF92EF92FF920F931F93CF93C2
S11300A0DF93CDB7DEB7C058D1090FB6F894DEBFE1
S11300B00FBECDBF611571058105910591F480E0F6
S11300C0C058DF4F0FB6F894DEBF0FBECDBFDF912F
S11300D0CF911F910F91FF90EF90DF90CF900C94F0
S11300E0C60200E0E1E0F0E0EC0FFD1F24E0029F17
S11300F0E00DF11D11246B017C0121E0C222DD24FD
S1130100EE24FF24C082D182E282F3829695879501
S1130110779567950F5F611571058105910511F755
S113012010E06801CC0CDD1CCC0CDD1CE12CF12CA6
S113013094E0E91AF1080115110591F0F601EE0DAC
S1130140FF1D81E090E08C0F9D1FE80FF91F608177
S11301507181828193810E94DB0201501109E8CFF1
S1130160C058DF4F0FB6F894DEBF0FBECDBFDF918E
S1130170CF911F910F91FF90EF90DF90CF90089552
S1130180CF93DF9320E130E040E050E00E947B0712
S1130190822FC62FD62F2A3014F4805D01C0895CCB
S11301A00E94C602DA3014F480E301C087E38C0FA6
S11301B0DF91CF910C94C602CF92DF92EF92FF921F
S11301C0CF93DF93EC010E940C034FEF480F21E023
S11301D030E060E070E0CB0147FD15C0FE01E40FA4
S11301E0F11D47FDFA955081513349F46901032EFD
S11301F0000CEE08FF086C0D7D1D8E1D9F1D220F47
S1130200331F4150E9CFDF91CF91FF90EF90DF9002
S1130210CF9008950E94DC000C94C00090ED980FDC
S11302209A3028F4682F70E06053710911C09FEB75
S1130230980F963028F4682F70E06753710908C04E
S11302409FE9980F963048F4682F70E0675571095C
S1130250072E000C880B990B08956FEF7FEFCB01ED
S11302600895BF92CF92DF92EF92FF920F931F9364
S1130270CF93DF938C010E940C03B12CC12CD12CA1
S11302807601C82FD0E02B2D0B2C000C330B2C1730
S11302903D0714F5F801E20FF31F80810E940E015F
S11302A06F3F2FEF72078207920749F480E790E0CF
S11302B00E94C8026FEF7FEF8FEF9FEF0FC024E023
S11302C0CC0CDD1CEE1CFF1C2A95D1F7C60ED71EE4
S11302D0E81EF91EB394D7CFB601C701DF91CF91C1
S11302E01F910F91FF90EF90DF90CF90BF900895F2
S11302F0CF938DE790E00E94C802C8E08EE20E948E
S1130300C6022FEF81EE94E0215080409040E1F747
S113031000C00000C15091F761E082E00E94010337
S113032085E890E0CF910C94C802CF93CCE061E0D3
S11303308C2F0E94DD06CF5FC031C9F7CF9108959D
S1130340DF92EF92FF920F931F93CF93DF9390E688
S1130350E92E90E0F92ECCE0D8E560E08C2F0E94E5
S1130360DD0600E010E08AE1D82ED00E8D2D0E942B
S11303705E07811115C0F701E00FF11FD0818FE1F5
S11303809EE40197F1F700C000008D2D0E945E07E6
S11303908823D9F38FE19EE40197F1F700C00000B0
S11303A00F5F1F4F04301105F1F661E08C2F0E949E
S11303B0DD06CF5F94E0E90EF11CC03171F68D2F9C
S11303C0DF91CF911F910F91FF90EF90DF900895EF
S11303D0CF93C82F60E081E00E94DD066C2F661F7A
S11303E06627661F86E00E94DD06C6FB662760F965
S11303F085E00E94DD06C5FB662760F984E00E9463
S1130400DD06C4FB662760F983E00E94DD0661E037
S113041082E00E94DD068FEC97E00197F1F700C0BF
S1130420000060E082E00E94DD068FEC97E0019717
S1130430F1F700C00000C3FB662760F986E00E9464
S1130440DD06C2FB662760F985E00E94DD06C1FB7C
S1130450662760F984E00E94DD066C2F617083E0FA
S11304600E94DD0661E082E00E94DD068FEC97E0E9
S11304700197F1F700C0000060E082E00E94DD0611
S11304808FEC97E00197F1F700C00000CF91089539
S1130490CF93C82F61E081E00E94DD066C2F661FB8
S11304A06627661F86E00E94DD06C6FB662760F9A4
S11304B085E00E94DD06C5FB662760F984E00E94A2
S11304C0DD06C4FB662760F983E00E94DD0661E077
S11304D082E00E94DD068FEC97E00197F1F700C0FF
S11304E0000060E082E00E94DD068FEC97E0019757
S11304F0F1F700C00000C3FB662760F986E00E94A4
S1130500DD06C2FB662760F985E00E94DD06C1FBBB
S1130510662760F984E00E94DD066C2F617083E039
S11305200E94DD0661E082E00E94DD068FEC97E028
S11305300197F1F700C0000060E082E00E94DD0650
S11305408FEC97E00197F1F700C00000CF91089578
S11305502FE788E391E0215080409040E1F700C00C
S1130560000082E00E94E80188E20E94E8018CE039
S11305700E94E80181E00E94E8018FEC97E0019776
S1130580F1F700C0000086E00C94E8010C944802E6
S11305900F931F93CF938C01C0E0F801EC0FF11D72
S11305A08081882321F00E944802CF5FF6CFCF914B
S11305B01F910F910895CF93DF93CDB7DEB72A979C
S11305C00FB6F894DEBF0FBECDBFAE014F5F5F4FD5
S11305D00E943303CE0101960E94C8022A960FB6E8
S11305E0F894DEBF0FBECDBFDF91CF91089581E0B7
S11305F00E94E8018FEC97E00197F1F700C000003A
S11306000895813011F48FE703C0823021F48FEB19
S1130610860F0C94E80108959C0180E0F901E80F2D
S1130620F11D9081992311F08F5FF8CF0895CF9336
S1130630DF93EC010E940C0390E09E01280F391F08
S1130640FE01959587958C0F9D1FE817F90741F0DA
S1130650408121503109D9015C9151934C93F5CFDC
S1130660DF91CF9108958F929F92AF92BF92DF92C4
S1130670EF92FF920F931F93CF93DF93EA016115DB
S113068071058105910579F480E388831982DF91EE
S1130690CF911F910F91FF90EF90DF90BF90AF909B
S11306A09F908F90089500E010E02AE0822E912C14
S11306B0A12CB12C3DE2D32E97FF1FC090958095BD
S11306C0709561957F4F8F4F9F4F7E01A5019401D7
S11306D00E947B07605DF70161937F01B901CA0144
S11306E08F010C1B1D0B611571058105910571F7B7
S11306F0FE01E00FF11FD0820CC07E01E00EF11E5E
S1130700A50194010E947B07605DF7016083B90134
S1130710CA010F5F1F4F611571058105910561F6CF
S1130720FE01E00FF11F1082CE01DF91CF911F91E6
S11307300F91FF90EF90DF90BF90AF909F908F90BC
S11307400C9417030E94FF050E94A8020E949501C1
S11307500E94F70263E081E00E94010381EB90E0D4
S11307600E94C80261E082E00E9401038DEB90E0E8
S11307700E94C8022FEF89E698E121508040904002
S1130780E1F700C000000E94F70284E00E947801B3
S11307902FEF84E39CE0215080409040E1F700C0BB
S11307A0000061E081E00E9401038EEC90E00E9471
S11307B0C80261E082E00E9401038FED90E00E9494
S11307C0C80284E391E00E940C0384E591E00E9456
S11307D00C030EE311E00E94A001813559F410923C
S11307E030011092310110923201109233010E94B3
S11307F0F702F1CF813309F07EC00E94F7028BEE3D
S113080090E00E94C8022FEF87E893E121508040D6
S11308109040E1F700C000000E94F70261E081E02F
S11308200E94010385EF90E00E94C80261E082E02B
S11308300E9401038BEF90E00E94C80210923001E5
S1130840109231011092320110923301D0E00E94D3
S1130850A001C82F813559F4109230011092310152
S113086010923201109233010E94F702EFCF8835C3
S113087071F380ED8C0F8A3060F520913001309156
S113088031014091320150913301AAE0B0E00E945D
S11308909A072C2F30E0205331096901330FEE08F9
S11308A0FF08DC01CB018C0D9D1DAE1DBF1D809387
S11308B0300190933101A0933201B093330166E08B
S11308C06D0F81E00E9401038C2F0E94C602DF5F3E
S11308D0BECFCD3309F0BBCF66E082E00E940103B6
S11308E06091300170913101809132019091330116
S11308F00E94490070CF823309F07EC00E94F70243
S113090081E091E00E94C8022FEF87E893E1215033
S113091080409040E1F700C000000E94F70261E0CF
S113092081E00E94010385EF90E00E94C80261E02B
S113093082E00E9401038BE091E00E94C8021092C1
S11309403001109231011092320110923301D0E043
S11309500E94A001C82F813559F4109230011092E1
S1130960310110923201109233010E94F702EFCF4D
S1130970883571F380ED8C0F8A3060F52091300159
S1130980309131014091320150913301AAE0B0E03D
S11309900E949A072C2F30E0205331096901330F4C
S11309A0EE08FF08DC01CB018C0D9D1DAE1DBF1DA3
S11309B08093300190933101A0933201B0933301BD
S11309C066E06D0F81E00E9401038C2F0E94C60235
S11309D0DF5FBECFCD3309F0BBCF66E082E00E947B
S11309E00103609130017091310180913201909145
S11309F033010E94C000EFCE833309F056C00E9439
S1130A00F70281E191E00E94C8022FEF87E893E1A9
S1130A10215080409040E1F700C000000E94F7029E
S1130A2061E081E00E9401038BEF90E00E94C80224
S1130A3061E082E00E94010385EF90E00E94C80219
S1130A40E4E3F1E011920E171F07E1F7F12CD0E077
S1130A500E94A001C82F813549F4E4E3F1E011922A
S1130A600E171F07E1F70E94F702F0CF80ED8C0FFD
S1130A70823080F4EF2DF0E0EC5CFE4FC08366E042
S1130A806D0F81E00E9401038C2F0E94C602F39433
S1130A90DF5FDECFCD33E1F666E082E00E94010342
S1130AA084E391E00E94DC00A7C0843309F055C0C0
S1130AB00E94F7028BE191E00E94C8022FEF87E8C1
S1130AC093E1215080409040E1F700C000000E9473
S1130AD0F70261E081E00E9401038BEF90E00E9445
S1130AE0C80261E082E00E9401038BE091E00E9471
S1130AF0C802E4E3F1E011920E171F07E1F7F12CAD
S1130B00D0E00E94A001C82F813541F4E4E3F1E074
S1130B10119221E0EE33F207D9F7F1CF80ED8C0F7B
S1130B20823080F4EF2DF0E0EC5CFE4FC08366E091
S1130B306D0F81E00E9401038C2F0E94C602F39482
S1130B40DF5FDFCFCD33E9F666E082E00E94010388
S1130B5084E391E00E940A013ECE853309F03BCE46
S1130B600E94F70285E291E00E94C8028FEF97E8A5
S1130B7023E1815090402040E1F700C000000E9432
S1130B80F70261E081E00E9401038BE091E00E94A2
S1130B90C80261E082E00E94010385EF90E00E94B8
S1130BA0C802F12CD0E00E94A001C82F8135C9F3FE
S1130BB08835C9F380ED8C0F8A3020F08FEB8C0FD1
S1130BC0863080F4EF2DF0E0EC5AFE4FC08366E0EF
S1130BD06D0F81E00E9401038C2F0E94C602F394E2
S1130BE0DF5FE1CFCD33F9F666E082E00E940103D6
S1130BF084E591E00E9431010E94DB02ECCDE1E941
S1130C00F0E040E081E090E05191342F3695369544
S1130C103695242F2770513009F443C020F0523008
S1130C2009F482C0C5C0323001F1333061F1313092
S1130C3071F05AB3BC0102C0660F771F2A95E2F720
S1130C409B01352F322B3ABB3BB320953DC057B3A4
S1130C50BC0102C0660F771F2A95E2F79B01352F6E
S1130C60322B37BB38B320953EC054B3BC0102C00D
S1130C70660F771F2A95E2F79B01352F322B34BB81
S1130C8035B320953FC051B3BC0102C0660F771F36
S1130C902A95E2F79B01352F322B31BB32B32095D5
S1130CA041C0323011F1333081F1313079F05AB32F
S1130CB0BC0102C0660F771F2A95E2F79B012095BD
S1130CC0352F32233ABB3BB3232342C057B3BC0175
S1130CD002C0660F771F2A95E2F79B012095352FF6
S1130CE0322337BB38B3232343C054B3BC0102C0FF
S1130CF0660F771F2A95E2F79B012095352F322343
S1130D0034BB35B3232325BB53C051B3BC0102C04C
S1130D10660F771F2A95E2F79B012095352F322322
S1130D2031BB32B3232343C0323021F1333089F154
S1130D30313081F05AB3BC0102C0660F771F2A9587
S1130D40E2F79B01362F309535233ABB3BB3232B77
S1130D502BBB2EC057B3BC0102C0660F771F2A9568
S1130D60E2F79B01362F3095352337BB38B3232B5D
S1130D7028BB1EC054B3BC0102C0660F771F2A955E
S1130D80E2F79B01362F3095352334BB35B3232B43
S1130D90BACF51B3BC0102C0660F771F2A95E2F7A0
S1130DA09B01362F3095352331BB32B3232B22BB25
S1130DB04F5F403209F028CF0895982F9695969565
S1130DC0969587706130C1F5913091F028F092309A
S1130DD0D9F0933029F108954BB321E030E0B90103
S1130DE002C0660F771F8A95E2F7CB01842B3AC0C5
S1130DF048B321E030E0B90102C0660F771F8A953D
S1130E00E2F7CB01842B3CC045B321E030E0B901CB
S1130E1002C0660F771F8A95E2F7CB01842B3EC090
S1130E2042B321E030E0B90102C0660F771F8A9512
S1130E30E2F7CB01842B40C061113FC09130A1F097
S1130E4028F09230F9F0933059F108954BB321E032
S1130E5030E0B90102C0660F771F8A95E2F7CB0133
S1130E60809584238BBB089548B321E030E0B90119
S1130E7002C0660F771F8A95E2F7CB018095842321
S1130E8088BB089545B321E030E0B90102C0660F84
S1130E90771F8A95E2F7CB018095842385BB08955B
S1130EA042B321E030E0B90102C0660F771F8A9592
S1130EB0E2F7CB018095842382BB0895282F277005
S1130EC0869586958695813049F030F0823041F0E0
S1130ED0833079F480B305C089B303C086B301C0FD
S1130EE083B390E002C0959587952A95E2F7982FF1
S1130EF09170892F0895052E97FB1EF400940E948B
S1130F00920757FD07D00E94A50707FC03D04EF4B3
S1130F100C94920750954095309521953F4F4F4F33
S1130F205F4F089590958095709561957F4F8F4F91
S1130F309F4F08950E94C707A59F900DB49F900DE1
S1130F40A49F800D911D11240895A1E21A2EAA1BBD
S1130F50BB1BFD010DC0AA1FBB1FEE1FFF1FA21765
S1130F60B307E407F50720F0A21BB30BE40BF50B62
S1130F70661F771F881F991F1A9469F760957095EB
S1130F80809590959B01AC01BD01CF010895A29F6E
S1130F90B001B39FC001A39F700D811D1124911D49
S1130FA0B29F700D811D1124911D0895F894FFCFF7
S1130FB037383941343536423132334351303D4488
S1130FC0496E76616C69642063686172004C6F617C
S1130FD064696E670020205374617274204E6F77C9
S1130FE000010000000000000100000000000000FB
S1130FF000000000000000000000000202020200E5
S1131000002057656C636F6D6520746F004E756DBD
S113101053797343616C63756C61746F7200312E24
S113102044324220322E443248332E423244003479
S11310302E42324820352E48324400446563203223
S11310402042696E004445433A200042494E3A200A
S113105000446563203220486578004845583A20AA
S11310600042696E2032204465630042696E20327A
S11310702048657800486578203220446563000084
S9030000FC
