:100000000C942A000C940C010C9447000C944700AB
:100010000C9447000C9447000C9436060C94E405AD
:100020000C940D060C94BB050C9447000C944700EF
:100030000C9447000C945F060C9447000C948906BE
:100040000C9447000C9447000C9447000C94470014
:100050000C94470011241FBECFE5D8E0DEBFCDBF12
:1000600010E0A0E6B0E0E4E1FEE002C005900D92F1
:10007000A23AB107D9F720E0A2EAB0E001C01D9290
:10008000A03CB207E1F70E94A1030C9408070C946E
:1000900000000E94A6030E945B0580E00E94050507
:1000A0000E942C020E946B03789408958DE10E94B7
:1000B000750390E09093BD008093BC00E091AC008C
:1000C000F0E08091BC009091BD00EE0FFF1FEE5557
:1000D000FF4F918380838091AA0081110AC061E063
:1000E00080E10E94840445E650E061E081E00E94E6
:1000F000AA02E091AC00F0E0EE0FFF1FEE55FF4FBB
:100100002081318140E050E06091600082E00E94F7
:1001100092028091AC008F5F8093AC008091BC0014
:100120009091BD00609160008436910520F06C5F75
:100130006093600026C08091BC009091BD000A973A
:1001400068F08091BC009091BD008436910530F438
:1001500084E0860F809360006E5F0FC08091BC00CA
:100160009091BD008091BC009091BD000A9748F429
:1001700084E0860F809360006F5F40E282E00E941F
:10018000A20280916000803118F081E080936000CD
:100190008091AC00843011F41092AC008091AB00DF
:1001A000882381F18091BE009091BF008436910533
:1001B00028F440E26FE081E00E94A2028091BE003C
:1001C0009091BF000A9728F440E26EE081E00E941F
:1001D000A2021092AB0044E750E061E081E00E948F
:1001E000AA022091BE003091BF0040E050E06DE0D7
:1001F00081E00E9492021092BF001092BE0081E046
:100200008093AA002FEF84E39CE02150804090402F
:10021000E1F700C0000008951F920F920FB60F92F1
:1002200011242F933F934F935F936F937F938F93FB
:100230009F93AF93BF93EF93FF9360E080E10E94A1
:10024000840480E090E0FC01EE0FFF1FEE55FF4FAD
:10025000408151812091BA003091BB00240F351F9D
:100260003093BB002093BA0001968430910559F772
:100270008091BA009091BB00969587959695879549
:100280009093BF008093BE0081E08093AB001092FA
:10029000A3001092A2001092A5001092A400109248
:1002A000A7001092A6001092A9001092A800109228
:1002B000BB001092BA00FF91EF91BF91AF919F9157
:1002C0008F917F916F915F914F913F912F910F90FF
:1002D0000FBE0F901F901895CF93C82F60E081E05C
:1002E0000E9484046C2F661F6627661F86E00E94AA
:1002F0008404C6FB662760F985E00E948404C5FB80
:10030000662760F984E00E948404C4FB662760F9D4
:1003100083E00E94840461E082E00E9484048FEC08
:1003200097E00197F1F700C0000060E082E00E94D2
:1003300084048FEC97E00197F1F700C00000C3FB45
:10034000662760F986E00E948404C2FB662760F994
:1003500085E00E948404C1FB662760F984E00E9466
:1003600084046C2F617083E00E94840461E082E069
:100370000E9484048FEC97E00197F1F700C0000021
:1003800060E082E00E9484048FEC97E00197F1F72F
:1003900000C00000CF910895CF93C82F61E081E0A5
:1003A0000E9484046C2F661F6627661F86E00E94E9
:1003B0008404C6FB662760F985E00E948404C5FBBF
:1003C000662760F984E00E948404C4FB662760F914
:1003D00083E00E94840461E082E00E9484048FEC48
:1003E00097E00197F1F700C0000060E082E00E9412
:1003F00084048FEC97E00197F1F700C00000C3FB85
:10040000662760F986E00E948404C2FB662760F9D3
:1004100085E00E948404C1FB662760F984E00E94A5
:1004200084046C2F617083E00E94840461E082E0A8
:100430000E9484048FEC97E00197F1F700C0000060
:1004400060E082E00E9484048FEC97E00197F1F76E
:1004500000C00000CF9108952FE788E391E021507C
:1004600080409040E1F700C0000082E00E946C01F3
:1004700088E20E946C018CE00E946C0181E00E9485
:100480006C018FEC97E00197F1F700C0000086E067
:100490000C946C010F931F93CF938C01C0E0F80173
:1004A000EC0FF11D8081882321F00E94CC01CF5FE9
:1004B000F6CF1082CF911F910F910895CF93DF93C4
:1004C000CDB7DEB72A970FB6F894DEBF0FBECDBF0B
:1004D000AE014F5F5F4F0E94DB02CE0101960E948A
:1004E0004A022A960FB6F894DEBF0FBECDBFDF9149
:1004F000CF910895982F862F913011F481580BC019
:10050000923011F4815407C0933011F48D5603C01A
:10051000943039F48D520E946C018AE68A95F1F785
:1005200000C00895CF92DF92EF92FF9269017A01A5
:100530000E947A02C701B601FF90EF90DF90CF9042
:100540000C945E02CF93C42F0E947A028C2FCF911D
:100550000C94CC01CF93DF93EA010E947A02CE0182
:10056000DF91CF910C944A029C0180E0F901E80FE1
:10057000F11D9081992311F08F5FF8CF0895CF93EB
:10058000DF93EC010E94B40290E09E01280F391F16
:10059000FE01959587958C0F9D1FE817F90741F08F
:1005A000408121503109D9015C9151934C93F5CF91
:1005B000DF91CF9108958F929F92AF92BF92DF9279
:1005C000EF92FF920F931F93CF93DF93EA01611590
:1005D00071058105910579F480E388831982DF91A3
:1005E000CF911F910F91FF90EF90DF90BF90AF9050
:1005F0009F908F90089500E010E02AE0822E912CC9
:10060000A12CB12C3DE2D32E97FF1FC09095809571
:10061000709561957F4F8F4F9F4F7E01A50194018B
:100620000E94E906605DF70161937F01B901CA018B
:100630008F010C1B1D0B611571058105910571F76B
:10064000FE01E00FF11FD0820CC07E01E00EF11E12
:10065000A50194010E94E906605DF7016083B9017C
:10066000CA010F5F1F4F611571058105910561F684
:10067000FE01E00FF11F1082CE01DF91CF911F919B
:100680000F91FF90EF90DF90BF90AF909F908F9071
:100690000C94BF028091B10081110AC086B597B554
:1006A0009093B0008093AF0081E08093B10010C0C0
:1006B0008091B100813071F486B597B59093AE000A
:1006C0008093AD0082E08093B1000E94B20580E08B
:1006D0000C94A305089562E080E00E9467058AE417
:1006E00093E00E94B6050C94AE05CF93C82F1092EC
:1006F000B1001DBC1CBC80E00E94A3050E94AE0599
:1007000061E08C2F0E9484048AE18A95F1F700C091
:1007100060E08C2F0E9484048091B1008230E0F36D
:100720008091AD009091AE002091AF003091B0006B
:10073000821B930B6AE370E00E94B306862FCF9171
:1007400008950E9449000E945600FDCFE2E8F0E0C3
:1007500040E081E090E05191342F36953695369502
:10076000242F2770513009F443C020F0523009F48F
:1007700082C0C5C0323001F1333061F1313071F0E7
:100780005AB3BC0102C0660F771F2A95E2F79B019E
:10079000352F322B3ABB3BB320953DC057B3BC013C
:1007A00002C0660F771F2A95E2F79B01352F322B87
:1007B00037BB38B320953EC054B3BC0102C0660FAE
:1007C000771F2A95E2F79B01352F322B34BB35B3C7
:1007D00020953FC051B3BC0102C0660F771F2A9518
:1007E000E2F79B01352F322B31BB32B3209541C04C
:1007F000323011F1333081F1313079F05AB3BC012C
:1008000002C0660F771F2A95E2F79B012095352FCE
:1008100032233ABB3BB3232342C057B3BC0102C0CF
:10082000660F771F2A95E2F79B012095352F32231B
:1008300037BB38B3232343C054B3BC0102C0660F97
:10084000771F2A95E2F79B012095352F322334BB81
:1008500035B3232325BB53C051B3BC0102C0660F7F
:10086000771F2A95E2F79B012095352F322331BB64
:1008700032B3232343C0323021F1333089F1313098
:1008800081F05AB3BC0102C0660F771F2A95E2F7C8
:100890009B01362F309535233ABB3BB3232B2BBB23
:1008A0002EC057B3BC0102C0660F771F2A95E2F72E
:1008B0009B01362F3095352337BB38B3232B28BB0C
:1008C0001EC054B3BC0102C0660F771F2A95E2F721
:1008D0009B01362F3095352334BB35B3232BBACF4C
:1008E00051B3BC0102C0660F771F2A95E2F79B0146
:1008F000362F3095352331BB32B3232B22BB4F5FCC
:10090000403209F028CF0895982F969596959695A0
:1009100087706130C1F5913091F028F09230D9F0B4
:10092000933029F108954BB321E030E0B90102C0C2
:10093000660F771F8A95E2F7CB01842B3AC048B344
:1009400021E030E0B90102C0660F771F8A95E2F717
:10095000CB01842B3CC045B321E030E0B90102C09B
:10096000660F771F8A95E2F7CB01842B3EC042B316
:1009700021E030E0B90102C0660F771F8A95E2F7E7
:10098000CB01842B40C061113FC09130A1F028F011
:100990009230F9F0933059F108954BB321E030E0F3
:1009A000B90102C0660F771F8A95E2F7CB018095E7
:1009B00084238BBB089548B321E030E0B90102C025
:1009C000660F771F8A95E2F7CB018095842388BB59
:1009D000089545B321E030E0B90102C0660F771FEA
:1009E0008A95E2F7CB018095842385BB089542B3B5
:1009F00021E030E0B90102C0660F771F8A95E2F767
:100A0000CB018095842382BB0895813039F018F0A2
:100A1000823039F008958BB7806405C08BB7806849
:100A200002C08BB780628BBF08958130F1F018F05F
:100A30008230B1F10895613049F028F0623061F000
:100A4000633069F0089585B78E7F02C085B78160F5
:100A500085BF85B78D7F22C085B78E7F02C085B7E1
:100A6000816085BF85B7826019C0613049F028F088
:100A7000623061F0633069F0089585B78B7F02C002
:100A800085B7846085BF85B7877F08C085B78B7FB2
:100A900002C085B7846085BF85B7886085BF08952B
:100AA000623029F0633019F484B7806402C084B7DF
:100AB0008F7B84BF089562E080E00E94150563E0AB
:100AC00081E00E94150562E082E00C9415058230F9
:100AD000D9F050F4882379F0813071F58FB58E7F8D
:100AE0008FBD8FB58D7F21C08330D1F0843021F54B
:100AF0008FB5816017C08FB58E7F8FBD8FB58D7F0D
:100B00008FBD8EB5877F08C08FB58E7F8FBD8FB5A7
:100B10008D7F8FBD8EB588608EBD8EB58F7E0BC0EC
:100B20008FB58E7F8FBD8FB582608FBD8EB588608B
:100B30008EBD8EB580618EBD8EB5887F8EBD8EB523
:100B4000682B6EBD0895811103C08EB5806404C00A
:100B5000813019F48EB58F7B8EBD089589B7806280
:100B600089BF089589B78F7D89BF08959093B30099
:100B70008093B20008951F920F920FB60F92112426
:100B80002F933F934F935F936F937F938F939F9395
:100B9000AF93BF93EF93FF93E091B800F091B9004A
:100BA000309709F00995FF91EF91BF91AF919F9117
:100BB0008F917F916F915F914F913F912F910F9006
:100BC0000FBE0F901F9018951F920F920FB60F92A5
:100BD00011242F933F934F935F936F937F938F9342
:100BE0009F93AF93BF93EF93FF93E091B600F09183
:100BF000B700309709F00995FF91EF91BF91AF9140
:100C00009F918F917F916F915F914F913F912F9124
:100C10000F900FBE0F901F9018951F920F920FB656
:100C20000F9211242F933F934F935F936F937F9372
:100C30008F939F93AF93BF93EF93FF93E091B40093
:100C4000F091B500309709F00995FF91EF91BF91B0
:100C5000AF919F918F917F916F915F914F913F9154
:100C60002F910F900FBE0F901F9018951F920F920B
:100C70000FB60F9211242F933F934F935F936F936F
:100C80007F938F939F93AF93BF93EF93FF93E091E5
:100C9000B200F091B300309709F00995FF91EF9100
:100CA000BF91AF919F918F917F916F915F914F9184
:100CB0003F912F910F900FBE0F901F9018951F928C
:100CC0000F920FB60F9211242F933F934F935F9380
:100CD0006F937F938F939F93AF93BF93EF93FF9304
:100CE000E0916300F0916400E230F10509F00995AC
:100CF000FF91EF91BF91AF919F918F917F916F91F4
:100D00005F914F913F912F910F900FBE0F901F90C9
:100D100018951F920F920FB60F9211242F933F93A5
:100D20004F935F936F937F938F939F93AF93BF93F3
:100D3000EF93FF93E0916100F0916200E230F105E2
:100D400009F00995FF91EF91BF91AF919F918F911C
:100D50007F916F915F914F913F912F910F900FBEB7
:100D60000F901F901895AA1BBB1B51E107C0AA1F2B
:100D7000BB1FA617B70710F0A61BB70B881F991F3C
:100D80005A95A9F780959095BC01CD010895A1E2EF
:100D90001A2EAA1BBB1BFD010DC0AA1FBB1FEE1FF5
:100DA000FF1FA217B307E407F50720F0A21BB30B40
:100DB000E40BF50B661F771F881F991F1A9469F7BC
:100DC00060957095809590959B01AC01BD01CF0118
:100DD0000895052E97FB1EF400940E94000757FD0E
:100DE00007D00E94C70607FC03D04EF40C940007FE
:100DF00050954095309521953F4F4F4F5F4F089547
:100E000090958095709561957F4F8F4F9F4F089576
:040E1000F894FFCF84
:100E1400010200020043757272656E7420446973A6
:100E2400743A200041766744697374616E63652087
:100E34003D00000000000000000000000000000071
:100E44000000000202020000000000000202000094
:020E540001009B
:00000001FF
