:100000000C942A000C9447000C9447000C94470071
:100010000C9447000C9447000C940D050C94BB0401
:100020000C94E4040C9492040C9447000C94470044
:100030000C9447000C9436050C9447000C94600512
:100040000C9447000C9447000C9447000C94470014
:100050000C94470011241FBECFE5D8E0DEBFCDBF12
:1000600010E0A0E6B0E0E0EEFBE002C005900D92EB
:10007000A839B107D9F720E0A8E9B0E001C01D9286
:10008000A03AB207E1F70E9461020C94EE050C94CD
:100090000000CF93CCE061E08C2F0E94DB03CF5FA8
:1000A000C031C9F7CF910895CF93C82F60E088E1A0
:1000B0000E94DB036C2F661F6627661F8DE10E947E
:1000C000DB03C6FB662760F98CE10E94DB03C5FBFE
:1000D000662760F98BE10E94DB03C4FB662760F9A9
:1000E0008AE10E94DB0361E089E10E94DB038FEC7F
:1000F00097E00197F1F700C0000060E089E10E94FD
:10010000DB038FEC97E00197F1F700C00000C3FB21
:10011000662760F98DE10E94DB03C2FB662760F968
:100120008CE10E94DB03C1FB662760F98BE10E9432
:10013000DB036C2F61708AE10E94DB0361E089E1DF
:100140000E94DB038FEC97E00197F1F700C00000FD
:1001500060E089E10E94DB038FEC97E00197F1F703
:1001600000C00000CF910895CF93C82F61E088E1CF
:100170000E94DB036C2F661F6627661F8DE10E94BD
:10018000DB03C6FB662760F98CE10E94DB03C5FB3D
:10019000662760F98BE10E94DB03C4FB662760F9E8
:1001A0008AE10E94DB0361E089E10E94DB038FECBE
:1001B00097E00197F1F700C0000060E089E10E943C
:1001C000DB038FEC97E00197F1F700C00000C3FB61
:1001D000662760F98DE10E94DB03C2FB662760F9A8
:1001E0008CE10E94DB03C1FB662760F98BE10E9472
:1001F000DB036C2F61708AE10E94DB0361E089E11F
:100200000E94DB038FEC97E00197F1F700C000003C
:1002100060E089E10E94DB038FEC97E00197F1F742
:1002200000C00000CF9108952FE788E391E02150AE
:1002300080409040E1F700C0000082E00E9454003E
:1002400088E20E9454008CE00E94540081E00E94E9
:1002500054008FEC97E00197F1F700C0000086E0B2
:100260000C9454000F931F93CF938C01C0E0F801BE
:10027000EC0FF11D8081882321F00E94B400CF5F34
:10028000F6CF1082CF911F910F910895CF93DF93F6
:10029000CDB7DEB72A970FB6F894DEBF0FBECDBF3D
:1002A000AE014F5F5F4F0E94BB01CE0101960E94DD
:1002B00032012A960FB6F894DEBF0FBECDBFDF9194
:1002C000CF910895982F862F913011F481580BC04B
:1002D000923011F4815407C0933011F48D5603C04D
:1002E000943039F48D520E9454008AE68A95F1F7D1
:1002F00000C00895CF92DF92EF92FF9269017A01D8
:100300000E946201C701B601FF90EF90DF90CF908D
:100310000C944601CF93DF93EA010E946201CE0163
:10032000DF91CF910C9432019C0180E0F901E80F3C
:10033000F11D9081992311F08F5FF8CF0895CF932D
:10034000DF93EC010E94940190E09E01280F391F79
:10035000FE01959587958C0F9D1FE817F90741F0D1
:10036000408121503109D9015C9151934C93F5CFD3
:10037000DF91CF9108958F929F92AF92BF92DF92BB
:10038000EF92FF920F931F93CF93DF93EA016115D2
:1003900071058105910579F480E388831982DF91E5
:1003A000CF911F910F91FF90EF90DF90BF90AF9092
:1003B0009F908F90089500E010E02AE0822E912C0B
:1003C000A12CB12C3DE2D32E97FF1FC090958095B4
:1003D000709561957F4F8F4F9F4F7E01A5019401CE
:1003E0000E94C005605DF70161937F01B901CA01F8
:1003F0008F010C1B1D0B611571058105910571F7AE
:10040000FE01E00FF11FD0820CC07E01E00EF11E54
:10041000A50194010E94C005605DF7016083B901E8
:10042000CA010F5F1F4F611571058105910561F6C6
:10043000FE01E00FF11F1082CE01DF91CF911F91DD
:100440000F91FF90EF90DF90BF90AF909F908F90B3
:100450000C949F01813031F060F0823051F0833094
:1004600041F0089561E08AE00E94DB0360E08BE0E8
:1004700006C061E088E00E94DB0360E089E00C9444
:10048000DB03813031F060F0823051F0833041F095
:10049000089560E08AE00E94DB0360E08BE006C024
:1004A00060E088E00E94DB0360E089E00C94DB03FD
:1004B00082E00E94EC026AE070E00E948A05CB01B3
:1004C00008950E94FD020E9414010E94490066E006
:1004D00081E00E94CB0262E083E00E945C0482E043
:1004E0000E947C0419E90FEF0E945802EC0144E8D5
:1004F00050E061E082E00E948A019E0140E050E00D
:1005000067E082E00E947A01CF31D10578F00CBF1C
:1005100080E00E942A024BE850E061E081E00E9406
:100520008A012FEF30E040E050E02CC0CE014A9726
:10053000059778F41CBF80E00E942A024BE850E047
:1005400061E081E00E948A0129E930E040E050E06A
:1005500019C0CE014797039718F06597229728F4A2
:100560001CBE80E00E942A0204C01CBE80E00E94E3
:1005700041024BE850E061E081E00E948A0120E006
:1005800030E0A9016DE081E00E947A0161E080E144
:100590000E94DB03A9CF813041F028F0823039F48A
:1005A0003E9A3F9A04C03E9801C03E9A3F9886B159
:1005B000887F86B986B16770682B66B9379A0895C7
:1005C00097B1907E97B997B1892B87B9369A3699AA
:1005D000FECF84B195B108950E94E0029C01A8E885
:1005E000B3E10E94DF05DC01CB012AE0B695A795B7
:1005F000979587952A95D1F70895E4E6F0E040E0D5
:1006000081E090E05191342F369536953695242F20
:100610002770513009F443C020F0523009F482C0F1
:10062000C5C0323001F1333061F1313071F05AB36D
:10063000BC0102C0660F771F2A95E2F79B01352F98
:10064000322B3ABB3BB320953DC057B3BC0102C02F
:10065000660F771F2A95E2F79B01352F322B37BBA8
:1006600038B320953EC054B3BC0102C0660F771F5B
:100670002A95E2F79B01352F322B34BB35B32095F9
:100680003FC051B3BC0102C0660F771F2A95E2F745
:100690009B01352F322B31BB32B3209541C0323014
:1006A00011F1333081F1313079F05AB3BC0102C01D
:1006B000660F771F2A95E2F79B012095352F32238D
:1006C0003ABB3BB3232342C057B3BC0102C0660F01
:1006D000771F2A95E2F79B012095352F322337BBF0
:1006E00038B3232343C054B3BC0102C0660F771F45
:1006F0002A95E2F79B012095352F322334BB35B381
:10070000232325BB53C051B3BC0102C0660F771F22
:100710002A95E2F79B012095352F322331BB32B366
:10072000232343C0323021F1333089F1313081F05D
:100730005AB3BC0102C0660F771F2A95E2F79B01EE
:10074000362F309535233ABB3BB3232B2BBB2EC022
:1007500057B3BC0102C0660F771F2A95E2F79B01D1
:10076000362F3095352337BB38B3232B28BB1EC01B
:1007700054B3BC0102C0660F771F2A95E2F79B01B4
:10078000362F3095352334BB35B3232BBACF51B335
:10079000BC0102C0660F771F2A95E2F79B01362F36
:1007A0003095352331BB32B3232B22BB4F5F403210
:1007B00009F028CF0895982F96959695969587706D
:1007C0006130C1F5913091F028F09230D9F093303A
:1007D00029F108954BB321E030E0B90102C0660F62
:1007E000771F8A95E2F7CB01842B3AC048B321E00A
:1007F00030E0B90102C0660F771F8A95E2F7CB019E
:10080000842B3CC045B321E030E0B90102C0660F43
:10081000771F8A95E2F7CB01842B3EC042B321E0DB
:1008200030E0B90102C0660F771F8A95E2F7CB016D
:10083000842B40C061113FC09130A1F028F092306C
:10084000F9F0933059F108954BB321E030E0B9014C
:1008500002C0660F771F8A95E2F7CB01809584234B
:100860008BBB089548B321E030E0B90102C0660FA8
:10087000771F8A95E2F7CB018095842388BB089582
:1008800045B321E030E0B90102C0660F771F8A95B9
:10089000E2F7CB018095842385BB089542B321E024
:1008A00030E0B90102C0660F771F8A95E2F7CB01ED
:1008B0008095842382BB0895813059F038F08230CE
:1008C00071F0833091F483B780640BC083B78F7B62
:1008D00002C083B7806483BF83B7877F05C083B7B7
:1008E0008F7B83BF83B7886083BF83B7887F83BFD5
:1008F00083B7682B63BF0895823051F0833059F07D
:1009000081110FC083B78F7E83BF83B78F7D08C0EF
:1009100083B78F7E02C083B7806183BF83B7806255
:1009200083BF08951F920F920FB60F9211242F9339
:100930003F934F935F936F937F938F939F93AF9367
:10094000BF93EF93FF93E0919E00F0919F0030974B
:1009500009F00995FF91EF91BF91AF919F918F9110
:100960007F916F915F914F913F912F910F900FBEAB
:100970000F901F9018951F920F920FB60F9211248F
:100980002F933F934F935F936F937F938F939F9397
:10099000AF93BF93EF93FF93E0919C00F0919D0084
:1009A000309709F00995FF91EF91BF91AF919F9119
:1009B0008F917F916F915F914F913F912F910F9008
:1009C0000FBE0F901F9018951F920F920FB60F92A7
:1009D00011242F933F934F935F936F937F938F9344
:1009E0009F93AF93BF93EF93FF93E0919A00F091A1
:1009F0009B00309709F00995FF91EF91BF91AF915E
:100A00009F918F917F916F915F914F913F912F9126
:100A10000F900FBE0F901F9018951F920F920FB658
:100A20000F9211242F933F934F935F936F937F9374
:100A30008F939F93AF93BF93EF93FF93E0919800B1
:100A4000F0919900309709F00995FF91EF91BF91CE
:100A5000AF919F918F917F916F915F914F913F9156
:100A60002F910F900FBE0F901F9018951F920F920D
:100A70000FB60F9211242F933F934F935F936F9371
:100A80007F938F939F93AF93BF93EF93FF93E091E7
:100A90006200F0916300E230F10509F00995FF91E1
:100AA000EF91BF91AF919F918F917F916F915F91E6
:100AB0004F913F912F910F900FBE0F901F9018955F
:100AC0001F920F920FB60F9211242F933F934F93C3
:100AD0005F936F937F938F939F93AF93BF93EF93A6
:100AE000FF93E0916000F0916100E230F10509F0C0
:100AF0000995FF91EF91BF91AF919F918F917F9158
:100B00006F915F914F913F912F910F900FBE0F907A
:100B10001F901895AA1BBB1B51E107C0AA1FBB1F42
:100B2000A617B70710F0A61BB70B881F991F5A9579
:100B3000A9F780959095BC01CD010895A1E21A2EE8
:100B4000AA1BBB1BFD010DC0AA1FBB1FEE1FFF1F71
:100B5000A217B307E407F50720F0A21BB30BE40BC1
:100B6000F50B661F771F881F991F1A9469F7609508
:100B70007095809590959B01AC01BD01CF010895C2
:100B8000052E97FB1EF400940E94D70557FD07D051
:100B90000E949E0507FC03D04EF40C94D705509597
:100BA0004095309521953F4F4F4F5F4F0895909559
:100BB0008095709561957F4F8F4F9F4F0895A29FAD
:100BC000B001B39FC001A39F700D811D1124911D21
:100BD000B29F700D811D1124911D0895F894FFCFCF
:100BE00002000200010001000000000100000000FE
:100BF00000000000020202020000000000000000ED
:100C00000000000054656D70203D0046616E205369
:080C100070656564203D0000E1
:00000001FF
