S01300004D61696E50726F6A6563742E73726563B5
S11300000C942A000C9451030C9447000C94470060
S11300100C9447000C9447000C94D6060C94840668
S11300200C94AD060C945B060C9447000C944700AA
S11300300C9447000C9405070C9447000C942F076C
S11300400C9447000C9447000C9447000C94470010
S11300500C94470011241FBECFE5D8E0DEBFCDBF0E
S113006011E0A0E6B0E0EAE5FFE002C005900D92E1
S1130070AC36B107D9F721E0ACE6B1E001C01D927E
S1130080A43BB207E1F70E942D030C94AB070C9438
S1130090000062E083E00E94B00562E083E00E9419
S11300A0E60582E00E94220682E00E943D0682E08C
S11300B00E94D00580E091E00C9458060E942E0224
S11300C04FE850E061E081E00E9468020E942E0245
S11300D04FE950E061E082E00E94680240EB50E0AA
S11300E061E083E00E9468020E94D70080936C0163
S11300F02FEC280F2730C0F720936D0130E040E04B
S113010050E061E084E00E94500280916C01089507
S11301102FEF83ED90E3215080409040E1F700C041
S113012000000E942E0243EC50E061E081E00E9456
S1130130680245ED50E061E082E00E94680247EE0B
S113014050E061E083E00E9468024AEF50E061E021
S113015084E00E9468020E94D70081538830D8F757
S1130160809389010E942E0220916D0130E040E0CD
S113017050E061E081E00E9450022091890130E06A
S113018040E050E061E082E00E9450026091890109
S113019080916D010C940803CF93CCE061E08C2F27
S11301A00E94B004CF5FC031C9F7CF910895DF92A8
S11301B0EF92FF920F931F93CF93DF9390E6E92E74
S11301C090E0F92ECCE0D8E560E08C2F0E94B004DA
S11301D000E010E080E1D82ED00E8D2D0E94310574
S11301E0811115C0F701E00FF11FD0818FE19EE46A
S11301F00197F1F700C000008D2D0E94310588237E
S1130200D9F38FE19EE40197F1F700C000000F5F7E
S11302101F4F04301105F1F661E08C2F0E94B004E9
S1130220CF5F94E0E90EF11CC03171F68D2FDF91A0
S1130230CF911F910F91FF90EF90DF900895CF938E
S1130240C82F60E081E00E94B0046C2F661F66270F
S1130250661F86E00E94B004C6FB662760F985E04D
S11302600E94B004C5FB662760F984E00E94B004D4
S1130270C4FB662760F983E00E94B00461E082E079
S11302800E94B0048FEC97E00197F1F700C00000E2
S113029060E082E00E94B0048FEC97E00197F1F7F0
S11302A000C00000C3FB662760F986E00E94B0042A
S11302B0C2FB662760F985E00E94B004C1FB662793
S11302C060F984E00E94B0046C2F617083E00E94A6
S11302D0B00461E082E00E94B0048FEC97E00197E3
S11302E0F1F700C0000060E082E00E94B0048FECEF
S11302F097E00197F1F700C00000CF910895CF93E4
S1130300C82F61E081E00E94B0046C2F661F66274D
S1130310661F86E00E94B004C6FB662760F985E08C
S11303200E94B004C5FB662760F984E00E94B00413
S1130330C4FB662760F983E00E94B00461E082E0B8
S11303400E94B0048FEC97E00197F1F700C0000021
S113035060E082E00E94B0048FEC97E00197F1F72F
S113036000C00000C3FB662760F986E00E94B00469
S1130370C2FB662760F985E00E94B004C1FB6627D2
S113038060F984E00E94B0046C2F617083E00E94E5
S1130390B00461E082E00E94B0048FEC97E0019722
S11303A0F1F700C0000060E082E00E94B0048FEC2E
S11303B097E00197F1F700C00000CF9108952FE76F
S11303C088E391E0215080409040E1F700C00000B4
S11303D082E00E941F0188E20E941F018CE00E94BB
S11303E01F0181E00E941F018FEC97E00197F1F754
S11303F000C0000086E00C941F010C947F010F9351
S11304001F93CF938C01C0E0F801EC0FF11D8081A4
S1130410882321F00E947F01CF5FF6CFCF911F91F7
S11304200F910895CF93DF93CDB7DEB72A970FB618
S1130430F894DEBF0FBECDBFAE014F5F5F4F0E9489
S11304409902CE0101960E94FF012A960FB6F894F4
S1130450DEBF0FBECDBFDF91CF91089581E00E9432
S11304601F018FEC97E00197F1F700C00000089599
S1130470982F862F913011F481580BC0923011F4CB
S1130480815407C0933011F48D5603C0943039F46D
S11304908D520E941F018AE68A95F1F700C00895E3
S11304A0CF92DF92EF92FF9269017A010E943802A3
S11304B0C701B601FF90EF90DF90CF900C94120229
S11304C0CF93C42F0E9438028C2FCF910C947F01BC
S11304D0CF93DF93EA010E943802CE01DF91CF91DE
S11304E00C94FF019C0180E0F901E80FF11D90815B
S11304F0992311F08F5FF8CF0895CF93DF93EC0128
S11305000E94720290E09E01280F391FFE0195950A
S113051087958C0F9D1FE817F90741F04081215002
S11305203109D9015C9151934C93F5CFDF91CF916F
S113053008958F929F92AF92BF92DF92EF92FF92B3
S11305400F931F93CF93DF93EA0161157105810522
S1130550910579F480E388831982DF91CF911F910B
S11305600F91FF90EF90DF90BF90AF909F908F908E
S1130570089500E010E02AE0822E912CA12CB12CE9
S11305803DE2D32E97FF1FC090958095709561959D
S11305907F4F8F4F9F4F7E01A50194010E948C07CE
S11305A0605DF70161937F01B901CA018F010C1BE2
S11305B01D0B611571058105910571F7FE01E00FB1
S11305C0F11FD0820CC07E01E00EF11EA501940142
S11305D00E948C07605DF7016083B901CA010F5F57
S11305E01F4F611571058105910561F6FE01E00F4C
S11305F0F11F1082CE01DF91CF911F910F91FF90D7
S1130600EF90DF90BF90AF909F908F900C947D02FD
S113061090E070E0DB01AA0FBB1F6A0F7B1FDB01B8
S1130620A059BF4F2C91FC01EE0FFF1F8E0F9F1F8F
S1130630FC01E657FE4F208311968C91119781831C
S113064012968C9182832CBF818190E09BBD8ABDE0
S1130650828190E099BD88BD08950E94D2030E94D2
S1130660DF010E94CC0066E081E00E94BD030E948D
S1130670FF060E94A40580E00E944E0562E080E02F
S11306800E945E0561E081E00E94380284E591E009
S11306900E94FF010E9449000E945E000E9488009F
S11306A0FDCF1F920F920FB60F9211242F933F93F9
S11306B04F935F936F937F938F939F93AF93BF9366
S11306C0CF93EF93FF938091700190E081579E4FF9
S11306D00E945907C82F813059F461E082E00E94DA
S11306E0380289E591E00E94FF01C0936E0133C096
S11306F080916E01813041F441E351E061E082E098
S11307000E94600210926E0180916F018130B9F4F1
S11307104EE251E061E082E00E9468024FE851E05D
S113072061E082E00E946802609170016F5F82E084
S11307300E94380280E20E94FD0110926F016091D4
S113074070018FEF860F8093700182E00E9438025F
S113075080E20E94FD01FF91EF91CF91BF91AF9193
S11307609F918F917F916F915F914F913F912F91C5
S11307700F900FBE0F901F901895813041F028F014
S1130780823039F43E9A3F9A04C03E9801C03E9AA2
S11307903F9886B1887F86B986B16770682B66B941
S11307A0379A0895EEE0F1E040E081E090E0519165
S11307B0342F369536953695242F2770513009F409
S11307C043C020F0523009F482C0C5C0323001F178
S11307D0333061F1313071F05AB3BC0102C0660F9D
S11307E0771F2A95E2F79B01352F322B3ABB3BB397
S11307F020953DC057B3BC0102C0660F771F2A95F0
S1130800E2F79B01352F322B37BB38B320953EC01E
S113081054B3BC0102C0660F771F2A95E2F79B010F
S1130820352F322B34BB35B320953FC051B3BC01B7
S113083002C0660F771F2A95E2F79B01352F322BF2
S113084031BB32B3209541C0323011F1333081F1E4
S1130850313079F05AB3BC0102C0660F771F2A9574
S1130860E2F79B012095352F32233ABB3BB3232378
S113087042C057B3BC0102C0660F771F2A95E2F746
S11308809B012095352F322337BB38B3232343C034
S113089054B3BC0102C0660F771F2A95E2F79B018F
S11308A02095352F322334BB35B3232325BB53C0C6
S11308B051B3BC0102C0660F771F2A95E2F79B0172
S11308C02095352F322331BB32B3232343C032303A
S11308D021F1333089F1313081F05AB3BC0102C0C7
S11308E0660F771F2A95E2F79B01362F3095352343
S11308F03ABB3BB3232B2BBB2EC057B3BC0102C066
S1130900660F771F2A95E2F79B01362F3095352322
S113091037BB38B3232B28BB1EC054B3BC0102C061
S1130920660F771F2A95E2F79B01362F3095352302
S113093034BB35B3232BBACF51B3BC0102C0660F0D
S1130940771F2A95E2F79B01362F3095352331BB6B
S113095032B3232B22BB4F5F403209F028CF0895D6
S1130960982F96959695969587706130C1F591303C
S113097091F028F09230D9F0933029F108954BB3D7
S113098021E030E0B90102C0660F771F8A95E2F7D3
S1130990CB01842B3AC048B321E030E0B90102C056
S11309A0660F771F8A95E2F7CB01842B3CC045B3D1
S11309B021E030E0B90102C0660F771F8A95E2F7A3
S11309C0CB01842B3EC042B321E030E0B90102C028
S11309D0660F771F8A95E2F7CB01842B40C0611123
S11309E03FC09130A1F028F09230F9F0933059F1E2
S11309F008954BB321E030E0B90102C0660F771FC0
S1130A008A95E2F7CB01809584238BBB089548B384
S1130A1021E030E0B90102C0660F771F8A95E2F742
S1130A20CB018095842388BB089545B321E030E051
S1130A30B90102C0660F771F8A95E2F7CB01809552
S1130A40842385BB089542B321E030E0B90102C09C
S1130A50660F771F8A95E2F7CB018095842382BBCA
S1130A600895282F2770869586958695813049F0BC
S1130A7030F0823041F0833079F480B305C089B31B
S1130A8003C086B301C083B390E002C095958795F7
S1130A902A95E2F7982F9170892F0895813039F0C3
S1130AA018F0823039F008958BB7806405C08BB795
S1130AB0806802C08BB780628BBF08958130F1F0EB
S1130AC018F08230B1F10895613049F028F06230B5
S1130AD061F0633069F0089585B78E7F02C085B7F1
S1130AE0816085BF85B78D7F22C085B78E7F02C0A8
S1130AF085B7816085BF85B7826019C0613049F0D0
S1130B0028F0623061F0633069F0089585B78B7F17
S1130B1002C085B7846085BF85B7877F08C085B765
S1130B208B7F02C085B7846085BF85B7886085BF29
S1130B300895623029F0633019F484B7806402C0E8
S1130B4084B78F7B84BF089562E080E00E945E05D5
S1130B5062E081E00E945E0562E082E00C945E0542
S1130B60813059F038F0823071F0833091F483B7DA
S1130B7080640BC083B78F7B02C083B7806483BF5C
S1130B8083B7877F05C083B78F7B83BF83B78860B4
S1130B9083BF83B7887F83BF83B7682B63BF089500
S1130BA0823051F0833059F081110FC083B78F7EAA
S1130BB083BF83B78F7D08C083B78F7E02C083B79E
S1130BC0806183BF83B7806283BF08958230D9F088
S1130BD050F4882379F0813071F58FB58E7F8FBD05
S1130BE08FB58D7F21C08330D1F0843021F58FB54E
S1130BF0816017C08FB58E7F8FBD8FB58D7F8FBD00
S1130C008EB5877F08C08FB58E7F8FBD8FB58D7FE2
S1130C108FBD8EB588608EBD8EB58F7E0BC08FB5AF
S1130C208E7F8FBD8FB582608FBD8EB588608EBD7F
S1130C308EB580618EBD8EB5887F8EBD8EB5682BD6
S1130C406EBD0895813049F028F0823061F0833020
S1130C5069F008958FB58F7B02C08FB580648FBD16
S1130C608FB58F7708C08FB58F7B02C08FB5806436
S1130C708FBD8FB580688FBD0895813049F028F00D
S1130C80823061F0833069F008958FB58F7E02C0A1
S1130C908FB580618FBD8FB58F7D08C08FB58F7E76
S1130CA002C08FB580618FBD8FB580628FBD0895FE
S1130CB097BD86BD08951F920F920FB60F9211240F
S1130CC02F933F934F935F936F937F938F939F9350
S1130CD0AF93BF93EF93FF93E0917701F091780185
S1130CE0309709F00995FF91EF91BF91AF919F91D2
S1130CF08F917F916F915F914F913F912F910F90C1
S1130D000FBE0F901F9018951F920F920FB60F925F
S1130D1011242F933F934F935F936F937F938F93FC
S1130D209F93AF93BF93EF93FF93E0917501F0917D
S1130D307601309709F00995FF91EF91BF91AF913A
S1130D409F918F917F916F915F914F913F912F91DF
S1130D500F900FBE0F901F9018951F920F920FB611
S1130D600F9211242F933F934F935F936F937F932D
S1130D708F939F93AF93BF93EF93FF93E09173018E
S1130D80F0917401309709F00995FF91EF91BF91AB
S1130D90AF919F918F917F916F915F914F913F910F
S1130DA02F910F900FBE0F901F9018951F920F92C6
S1130DB00FB60F9211242F933F934F935F936F932A
S1130DC07F938F939F93AF93BF93EF93FF93E091A0
S1130DD07101F0917201309709F00995FF91EF913B
S1130DE0BF91AF919F918F917F916F915F914F913F
S1130DF03F912F910F900FBE0F901F90189583E392
S1130E0089B95998539A549A08951F920F920FB61C
S1130E100F9211242F933F934F935F936F937F937C
S1130E208F939F93AF93BF93EF93FF93E0918D00C4
S1130E30F0918E00E230F10509F00995FF91EF91F0
S1130E40BF91AF919F918F917F916F915F914F91DE
S1130E503F912F910F900FBE0F901F9018951F92E6
S1130E600F920FB60F9211242F933F934F935F93DA
S1130E706F937F938F939F93AF93BF93EF93FF935E
S1130E80E0918B00F0918C00E230F10509F00995B6
S1130E90FF91EF91BF91AF919F918F917F916F914E
S1130EA05F914F913F912F910F900FBE0F901F9024
S1130EB01895E0917901EE2359F0E150E09379011E
S1130EC0F0E0E658FE4F2081FC01208382E0089583
S1130ED081E00895A1E21A2EAA1BBB1BFD010DC0DF
S1130EE0AA1FBB1FEE1FFF1FA217B307E407F507D6
S1130EF020F0A21BB30BE40BF50B661F771F881FB2
S1130F00991F1A9469F760957095809590959B0147
S1130F10AC01BD01CF010895052E97FB1EF400948A
S1130F200E94A30757FD07D00E946A0707FC03D05D
S1130F304EF40C94A30750954095309521953F4F5E
S1130F404F4F5F4F089590958095709561957F4FB1
S10D0F508F4F9F4F0895F894FFCFD0
S1130F5A3738392F3435362A3132332D43303D2B45
S1130F6AFEFFFF000000FE000000FF000000FFFE7D
S1130F7AFF0000FFFFFE00FFFE8080020002002047
S1130F8A524742204C696768742053686F7700207F
S1130F9A2020506C656173652053656C6563740029
S1130FAA204C45442066726F6D20524742204C699A
S1130FBA737400312E20574849544520322E20425A
S1130FCA4C41434B00332E20524544202020342EDA
S1130FDA20475245454E00352E20424C5545202087
S1130FEA362E2059454C4C4F5700372E2043594131
S1130FFA4E2020382E204D4147454E5441000100D1
S113100A00000000000102000000000000000202CB
S113101A0202000000000100020200000100202078
S113102A20202020202020202020202020202020B2
S113103A20200020537461636B2069732046756C09
S113104A6C202000554152540020537461636B2074
S10F105A697320456D707479202000003B
S9030000FC
