S01600005354445F43616C63756C61746F722E73726563BA
S11300000C942A000C9447000C9447000C9447006D
S11300100C9447000C9447000C9447000C94470040
S11300200C9447000C9447000C9447000C94470030
S11300300C9447000C9447000C9447000C94470020
S11300400C9447000C9447000C9447000C94470010
S11300500C94470011241FBECFE5D8E0DEBFCDBF0E
S113006010E0A0E6B0E0E6EEFAE002C005900D92E2
S1130070AC3EB107D9F720E0ACEEB0E001C01D9270
S1130080A03FB207E1F70E949F020C9471050C9403
S11300900000860F971FBC01990F880B990B0895D8
S11300A0861B970BBC01990F880B990B08959C0133
S11300B0269FC001279F900D369F900D1124BC01EF
S11300C0990F880B990B089561157105A9F40E9485
S11300D0F40165E081E00E94FE0180E790E00E9467
S11300E0C50161E082E00E94FE0186E790E00E9483
S11300F0C5018DE890E008950E941C05CB01089588
S1130100CF9385E990E00E94C501C8E08EE20E9489
S1130110C3012FEF81EE94E0215080409040E1F73D
S113012000C00000C15091F761E082E00E94FE012E
S11301308DE990E0CF910C94C501DF92EF92FF928C
S11301400F931F93CF93DF9390E6E92E90E0F92E5F
S1130150C4E1D8E560E08C2F0E946A0400E010E05E
S113016080E1D82ED00E8D2D0E94EB04811115C094
S1130170F701E00FF11FD0818FE19EE40197F1F7C1
S113018000C000008D2D0E94EB048823D9F38FE179
S11301909EE40197F1F700C000000F5F1F4F043089
S11301A01105F1F661E08C2F0E946A04CF5F94E0A0
S11301B0E90EF11CC83171F68D2FDF91CF911F919B
S11301C00F91FF90EF90DF900895CF93C82F60E0D8
S11301D08DE10E946A046C2F661F6627661F8BE1FF
S11301E00E946A04C6FB662760F98AE10E946A04D9
S11301F0C5FB662760F989E10E946A04C4FB66278F
S113020060F988E10E946A0461E08FE10E946A0457
S11302108FEC97E00197F1F700C0000060E08FE1F8
S11302200E946A048FEC97E00197F1F700C0000088
S1130230C3FB662760F98BE10E946A04C2FB662750
S113024060F98AE10E946A04C1FB662760F989E1CA
S11302500E946A046C2F617088E10E946A0461E064
S11302608FE10E946A048FEC97E00197F1F700C0D8
S1130270000060E08FE10E946A048FEC97E0019730
S1130280F1F700C00000CF910895CF93C82F61E02B
S11302908DE10E946A046C2F661F6627661F8BE13E
S11302A00E946A04C6FB662760F98AE10E946A0418
S11302B0C5FB662760F989E10E946A04C4FB6627CE
S11302C060F988E10E946A0461E08FE10E946A0497
S11302D08FEC97E00197F1F700C0000060E08FE138
S11302E00E946A048FEC97E00197F1F700C00000C8
S11302F0C3FB662760F98BE10E946A04C2FB662790
S113030060F98AE10E946A04C1FB662760F989E109
S11303100E946A046C2F617088E10E946A0461E0A3
S11303208FE10E946A048FEC97E00197F1F700C017
S1130330000060E08FE10E946A048FEC97E001976F
S1130340F1F700C00000CF9108952FE788E391E012
S1130350215080409040E1F700C0000082E00E94FC
S1130360E50088E20E94E5008CE00E94E50081E05F
S11303700E94E5008FEC97E00197F1F700C00000C0
S113038086E00C94E5000C9445010F931F93CF93E2
S11303908C01C0E0F801EC0FF11D8081882321F06D
S11303A00E944501CF5FF6CFCF911F910F91089521
S11303B0CF93DF93CDB7DEB72A970FB6F894DEBF9D
S11303C00FBECDBFAE014F5F5F4F0E943002CE0122
S11303D001960E94C5012A960FB6F894DEBF0FBE9F
S11303E0CDBFDF91CF91089581E00E94E5008FECAD
S11303F097E00197F1F700C000000895813011F4EF
S11304008FE703C0823021F48FEB860F0C94E50054
S113041008959C0180E0F901E80FF11D9081992372
S113042011F08F5FF8CF0895CF93DF93EC010E9412
S1130430090290E09E01280F391FFE0195958795CA
S11304408C0F9D1FE817F90741F0408121503109B5
S1130450D9015C9151934C93F5CFDF91CF910895DD
S11304608F929F92AF92BF92DF92EF92FF920F937F
S11304701F93CF93DF93EA016115710581059105FF
S113048079F480E388831982DF91CF911F910F91D2
S1130490FF90EF90DF90BF90AF909F908F90089562
S11304A000E010E02AE0822E912CA12CB12C3DE238
S11304B0D32E97FF1FC090958095709561957F4FBF
S11304C08F4F9F4F7E01A50194010E943005605D0E
S11304D0F70161937F01B901CA018F010C1B1D0B48
S11304E0611571058105910571F7FE01E00FF11F9A
S11304F0D0820CC07E01E00EF11EA50194010E9481
S11305003005605DF7016083B901CA010F5F1F4FB9
S1130510611571058105910561F6FE01E00FF11F7A
S11305201082CE01DF91CF911F910F91FF90EF9038
S1130530DF90BF90AF909F908F900C9414020E9414
S11305408C030E94A50161E081E00E94FE018BEC16
S113055090E00E94C50161E082E00E94FE018BED03
S113056090E00E94C5012FEF89E698E12150804078
S11305709040E1F700C000000E94F4010E94800056
S11305802FEF84E39CE0215080409040E1F700C0CD
S113059000000E94F4010AE01092EF001092EE00B5
S11305A01092ED001092EC0010E00E949D00C82F04
S11305B0833459F41092EF001092EE001092ED0083
S11305C01092EC000E94F401EFCF8B3231F08D32A7
S11305D021F08A3211F08F3249F41F5F612F81E0DC
S11305E00E94FE018C2F0E94C30121C080ED8C0F5C
S11305F08A30D8F68091EE009091EF00089F900128
S1130600099F300D11248C2F90E0C097820F931F07
S11306109093EF008093EE001F5F612F81E00E94B2
S1130620FE018C2F0E94C301C0CF883591F40E9433
S11306309D00D82F8334C9F71092EF001092EE007A
S11306401092ED001092EC000E94F401C0E010E062
S1130650EECF80ED8D0F8A30D8F41F5F612F81E0DB
S11306600E94FE018D2F0E94C3018091EC009091A5
S1130670ED00089F9001099F300D11248D2F90E00B
S1130680C097820F931F9093ED008093EC00CFCF1F
S1130690DD3369F68DE30E94C301CB3209F168F4BE
S11306A0CA32A1F56091EC007091ED008091EE00EA
S11306B09091EF000E9457002CC0CD32E1F0CF3270
S11306C029F56091EC007091ED008091EE0090911D
S11306D0EF000E946400BC01990F880B990B19C0AC
S11306E06091EC007091ED008091EE009091EF002C
S11306F00E9449000EC06091EC007091ED00809161
S1130700EE009091EF000E94500003C060E070E0A2
S1130710CB010E94D80140CFEBEAF0E040E081E059
S113072090E05191342F369536953695242F2770C5
S1130730513009F443C020F0523009F482C0C5C0DE
S1130740323001F1333061F1313071F05AB3BC0110
S113075002C0660F771F2A95E2F79B01352F322BD3
S11307603ABB3BB320953DC057B3BC0102C0660FF2
S1130770771F2A95E2F79B01352F322B37BB38B30D
S113078020953EC054B3BC0102C0660F771F2A9562
S1130790E2F79B01352F322B34BB35B320953FC094
S11307A051B3BC0102C0660F771F2A95E2F79B0183
S11307B0352F322B31BB32B3209541C0323011F189
S11307C0333081F1313079F05AB3BC0102C0660F85
S11307D0771F2A95E2F79B012095352F32233ABBE8
S11307E03BB3232342C057B3BC0102C0660F771F3B
S11307F02A95E2F79B012095352F322337BB38B376
S1130800232343C054B3BC0102C0660F771F2A954B
S1130810E2F79B012095352F322334BB35B32323D4
S113082025BB53C051B3BC0102C0660F771F2A9584
S1130830E2F79B012095352F322331BB32B32323BA
S113084043C0323021F1333089F1313081F05AB371
S1130850BC0102C0660F771F2A95E2F79B01362F71
S1130860309535233ABB3BB3232B2BBB2EC057B358
S1130870BC0102C0660F771F2A95E2F79B01362F51
S11308803095352337BB38B3232B28BB1EC054B354
S1130890BC0102C0660F771F2A95E2F79B01362F31
S11308A03095352334BB35B3232BBACF51B3BC01B8
S11308B002C0660F771F2A95E2F79B01362F309509
S11308C0352331BB32B3232B22BB4F5F403209F0B7
S11308D028CF0895982F96959695969587706130B0
S11308E0C1F5913091F028F09230D9F0933029F18C
S11308F008954BB321E030E0B90102C0660F771FC1
S11309008A95E2F7CB01842B3AC048B321E030E06A
S1130910B90102C0660F771F8A95E2F7CB01842BD9
S11309203CC045B321E030E0B90102C0660F771F37
S11309308A95E2F7CB01842B3EC042B321E030E03C
S1130940B90102C0660F771F8A95E2F7CB01842BA9
S113095040C061113FC09130A1F028F09230F9F00D
S1130960933059F108954BB321E030E0B90102C04E
S1130970660F771F8A95E2F7CB01809584238BBBA2
S1130980089548B321E030E0B90102C0660F771F33
S11309908A95E2F7CB018095842388BB089545B3FB
S11309A021E030E0B90102C0660F771F8A95E2F7B3
S11309B0CB018095842385BB089542B321E030E0C8
S11309C0B90102C0660F771F8A95E2F7CB018095C3
S11309D0842382BB0895282F277086958695869553
S11309E0813049F030F0823041F0833079F480B3C3
S11309F005C089B303C086B301C083B390E002C0CD
S1130A00959587952A95E2F7982F9170892F0895E7
S1130A10AA1BBB1B51E107C0AA1FBB1FA617B70720
S1130A2010F0A61BB70B881F991F5A95A9F780953C
S1130A309095BC01CD01089597FB072E16F4009400
S1130A4007D077FD09D00E94080507FC05D03EF4C5
S1130A50909581959F4F0895709561957F4F089566
S1130A60052E97FB1EF400940E94470557FD07D0FE
S1130A700E944F0507FC03D04EF40C944705509593
S1130A804095309521953F4F4F4F5F4F0895909576
S1130A908095709561957F4F8F4F9F4F0895A1E288
S1130AA01A2EAA1BBB1BFD010DC0AA1FBB1FEE1FE4
S1130AB0FF1FA217B307E407F50720F0A21BB30B2F
S1130AC0E40BF50B661F771F881F991F1A9469F7AB
S1130AD060957095809590959B01AC01BD01CF0107
S1090AE00895F894FFCF15
S1130AE63738392F3435362A3132332D43303D2BBE
S1130AF64572726F720052652D656E746572206E52
S1130B06756D6265727320616761696E00696E76E0
S1130B16616C6964004C6F6164696E6700596F7536
S1130B262043616E2053746172740000000000005B
S1130B36000000000000000000020202020202009F
S1130B4600000000000000000000002057656C63F0
S1130B566F6D6520746F2053544400202020436138
S10F0B666C63756C61746F7220200000D9
S9030000FC
