S01300004D61696E50726F6A6563742E73726563B5
S11300000C942A000C9447000C9447000C9447006D
S11300100C9447000C9447000C9464050C9412054E
S11300200C943B050C94E9040C944A020C942002B1
S11300300C9447000C94A4050C9447000C94CE0532
S11300400C9447000C9447000C9447000C94470010
S11300500C94470011241FBECFE5D8E0DEBFCDBF0E
S113006010E0A0E6B0E0E4ECFCE002C005900D92E4
S1130070A43CB107D9F720E0A4ECB0E001C01D9284
S1130080AE3FB207E1F70E9494010C9460060C9411
S11300900000CF93C4E161E08C2F0E947203CF5F14
S11300A0C831C9F7CF910895CF93C82F60E081E09C
S11300B00E9472036C2F661F6627661F86E00E94EB
S11300C07203C6FB662760F985E00E947203C5FBD4
S11300D0662760F984E00E947203C4FB662760F916
S11300E083E00E94720361E082E00E9472038FEC5D
S11300F097E00197F1F700C0000060E082E00E9401
S113010072038FEC97E00197F1F700C00000C3FB86
S1130110662760F986E00E947203C2FB662760F9D5
S113012085E00E947203C1FB662760F984E00E94A7
S113013072036C2F617083E00E94720361E082E0BD
S11301400E9472038FEC97E00197F1F700C0000062
S113015060E082E00E9472038FEC97E00197F1F770
S113016000C00000CF910895CF93C82F61E081E0D3
S11301700E9472036C2F661F6627661F86E00E942A
S11301807203C6FB662760F985E00E947203C5FB13
S1130190662760F984E00E947203C4FB662760F955
S11301A083E00E94720361E082E00E9472038FEC9C
S11301B097E00197F1F700C0000060E082E00E9440
S11301C072038FEC97E00197F1F700C00000C3FBC6
S11301D0662760F986E00E947203C2FB662760F915
S11301E085E00E947203C1FB662760F984E00E94E7
S11301F072036C2F617083E00E94720361E082E0FD
S11302000E9472038FEC97E00197F1F700C00000A1
S113021060E082E00E9472038FEC97E00197F1F7AF
S113022000C00000CF9108952FE788E391E02150AA
S113023080409040E1F700C0000082E00E9454003A
S113024088E20E9454008CE00E94540081E00E94E5
S113025054008FEC97E00197F1F700C0000086E0AE
S11302600C9454000F931F93CF938C01C0E0F801BA
S1130270EC0FF11D8081882321F00E94B400CF5F30
S1130280F6CFCF911F910F910895813011F48FE72C
S113029003C0823021F48FEB860F0C945400089530
S11302A0282F30E0A8EEB3E00E94510624EB30E0A2
S11302B040E050E00E942F0629513C4F39BD28BD33
S11302C00895CF93DF93C091C600D0E00E949B05B0
S11302D0C651DF4F88838091C6008F5F8093C6002C
S11302E0DF91CF9108958091E50081110AC086B510
S11302F097B59093E9008093E80081E08093E5004E
S113030010C08091E500813071F486B597B5909363
S1130310E7008093E60082E08093E5000E94E00419
S113032080E00C94D50408950E9494020E94140164
S11303300E94490066E081E00E947F020E948D05D0
S113034062E080E00E941D0463E081E00E941D04DD
S1130350789482E083BF62E080E00E94630482E0DC
S11303600E949F0482E00E94BA0481E089BF8FE169
S11303709EE497BD86BD8AE08CBF1DBC1CBC83E790
S113038091E00E94E40480E00E94D50461E081E0F1
S11303900E94450184E890E00E9432010E949D057C
S11303A081E691E00E949F05CAEED0E00E94970585
S11303B08093EA008091EA008823D9F08C2F0E9470
S11303C00E0681110BC089E890E00E94F80561E0F7
S11303D082E00E94450189E890E02FC087E990E01F
S11303E00E94F80561E082E00E94450187E990E0FF
S11303F024C080E10E94F3038111D8CF8AEE90E0FB
S11304000E941E068AEE90E00E941E06813059F476
S113041086EA90E00E94F80561E082E00E944501CE
S113042086EA90E00AC084EB90E00E94F80561E05F
S113043082E00E94450184EB90E00E943201B6CF35
S11304401F920F920FB60F9211242F933F934F9345
S11304505F936F937F938F939F93AF93BF93EF9328
S1130460FF938091C7008F5F8093C70088E10E944B
S11304701004FF91EF91BF91AF919F918F917F9164
S11304806F915F914F913F912F910F900FBE0F90FD
S11304901F9018951F920F920FB60F9211242F934D
S11304A03F934F935F936F937F938F939F93AF93F8
S11304B0BF93EF93FF9389E10E9410048091C400DD
S11304C00E9450018091C4009091C50009969093B8
S11304D0C5008093C4008CB7875F8CBFFF91EF91F8
S11304E0BF91AF919F918F917F916F915F914F9148
S11304F03F912F910F900FBE0F901F901895813050
S113050041F028F0823039F43E9A3F9A04C03E9874
S113051001C03E9A3F9886B1887F86B986B16770DC
S1130520682B66B9379A0895E4E6F0E040E081E08C
S113053090E05191342F369536953695242F2770B7
S1130540513009F443C020F0523009F482C0C5C0D0
S1130550323001F1333061F1313071F05AB3BC0102
S113056002C0660F771F2A95E2F79B01352F322BC5
S11305703ABB3BB320953DC057B3BC0102C0660FE4
S1130580771F2A95E2F79B01352F322B37BB38B3FF
S113059020953EC054B3BC0102C0660F771F2A9554
S11305A0E2F79B01352F322B34BB35B320953FC086
S11305B051B3BC0102C0660F771F2A95E2F79B0175
S11305C0352F322B31BB32B3209541C0323011F17B
S11305D0333081F1313079F05AB3BC0102C0660F77
S11305E0771F2A95E2F79B012095352F32233ABBDA
S11305F03BB3232342C057B3BC0102C0660F771F2D
S11306002A95E2F79B012095352F322337BB38B367
S1130610232343C054B3BC0102C0660F771F2A953D
S1130620E2F79B012095352F322334BB35B32323C6
S113063025BB53C051B3BC0102C0660F771F2A9576
S1130640E2F79B012095352F322331BB32B32323AC
S113065043C0323021F1333089F1313081F05AB363
S1130660BC0102C0660F771F2A95E2F79B01362F63
S1130670309535233ABB3BB3232B2BBB2EC057B34A
S1130680BC0102C0660F771F2A95E2F79B01362F43
S11306903095352337BB38B3232B28BB1EC054B346
S11306A0BC0102C0660F771F2A95E2F79B01362F23
S11306B03095352334BB35B3232BBACF51B3BC01AA
S11306C002C0660F771F2A95E2F79B01362F3095FB
S11306D0352331BB32B3232B22BB4F5F403209F0A9
S11306E028CF0895982F96959695969587706130A2
S11306F0C1F5913091F028F09230D9F0933029F17E
S113070008954BB321E030E0B90102C0660F771FB2
S11307108A95E2F7CB01842B3AC048B321E030E05C
S1130720B90102C0660F771F8A95E2F7CB01842BCB
S11307303CC045B321E030E0B90102C0660F771F29
S11307408A95E2F7CB01842B3EC042B321E030E02E
S1130750B90102C0660F771F8A95E2F7CB01842B9B
S113076040C061113FC09130A1F028F09230F9F0FF
S1130770933059F108954BB321E030E0B90102C040
S1130780660F771F8A95E2F7CB01809584238BBB94
S1130790089548B321E030E0B90102C0660F771F25
S11307A08A95E2F7CB018095842388BB089545B3ED
S11307B021E030E0B90102C0660F771F8A95E2F7A5
S11307C0CB018095842385BB089542B321E030E0BA
S11307D0B90102C0660F771F8A95E2F7CB018095B5
S11307E0842382BB0895282F277086958695869545
S11307F0813049F030F0823041F0833079F480B3B5
S113080005C089B303C086B301C083B390E002C0BE
S1130810959587952A95E2F7982F9170892F0895D9
S1130820CF93C82F0E94F303813011F460E001C01C
S113083061E08C2FCF910C9472038130F1F018F0A9
S11308408230B1F10895613049F028F0623061F0EE
S1130850633069F0089585B78E7F02C085B78160E3
S113086085BF85B78D7F22C085B78E7F02C085B7CF
S1130870816085BF85B7826019C0613049F028F076
S1130880623061F0633069F0089585B78B7F02C0F0
S113089085B7846085BF85B7877F08C085B78B7FA0
S11308A002C085B7846085BF85B7886085BF089519
S11308B0623029F0633019F484B7806402C084B7CD
S11308C08F7B84BF08958230D9F050F4882379F067
S11308D0813071F58FB58E7F8FBD8FB58D7F21C02F
S11308E08330D1F0843021F58FB5816017C08FB586
S11308F08E7F8FBD8FB58D7F8FBD8EB5877F08C0EE
S11309008FB58E7F8FBD8FB58D7F8FBD8EB588607F
S11309108EBD8EB58F7E0BC08FB58E7F8FBD8FB58C
S113092082608FBD8EB588608EBD8EB580618EBDB0
S11309308EB5887F8EBD8EB5682B6EBD08958130CF
S113094049F028F0823061F0833069F008958FB562
S11309508F7B02C08FB580648FBD8FB58F7708C041
S11309608FB58F7B02C08FB580648FBD8FB58068D3
S11309708FBD0895813049F028F0823061F08330D2
S113098069F008958FB58F7E02C08FB580618FBDE9
S11309908FB58F7D08C08FB58F7E02C08FB5806103
S11309A08FBD8FB580628FBD0895811103C08EB550
S11309B0806404C0813019F48EB58F7B8EBD089598
S11309C089B78F7D89BF08959093C9008093C8002B
S11309D008951F920F920FB60F9211242F933F93F5
S11309E04F935F936F937F938F939F93AF93BF9333
S11309F0EF93FF93E091CE00F091CF00309709F090
S1130A000995FF91EF91BF91AF919F918F917F9144
S1130A106F915F914F913F912F910F900FBE0F9067
S1130A201F9018951F920F920FB60F9211242F93B7
S1130A303F934F935F936F937F938F939F93AF9362
S1130A40BF93EF93FF93E091CC00F091CD003097EA
S1130A5009F00995FF91EF91BF91AF919F918F910B
S1130A607F916F915F914F913F912F910F900FBEA6
S1130A700F901F9018951F920F920FB60F9211248A
S1130A802F933F934F935F936F937F938F939F9392
S1130A90AF93BF93EF93FF93E091CA00F091CB0023
S1130AA0309709F00995FF91EF91BF91AF919F9114
S1130AB08F917F916F915F914F913F912F910F9003
S1130AC00FBE0F901F9018951F920F920FB60F92A2
S1130AD011242F933F934F935F936F937F938F933F
S1130AE09F93AF93BF93EF93FF93E091C800F0916E
S1130AF0C900309709F00995FF91EF91BF91AF912B
S1130B009F918F917F916F915F914F913F912F9121
S1130B100F900FBE0F901F90189583E389B95998D1
S1130B20539A549A08955D9BFECF8CB908955F9BA8
S1130B30FECF8CB108958CB10895579A089590937F
S1130B4063008093620008951F920F920FB60F9274
S1130B5011242F933F934F935F936F937F938F93BE
S1130B609F93AF93BF93EF93FF93E0916200F09153
S1130B706300E230F10509F00995FF91EF91BF910F
S1130B80AF919F918F917F916F915F914F913F9121
S1130B902F910F900FBE0F901F9018951F920F92D8
S1130BA00FB60F9211242F933F934F935F936F933C
S1130BB07F938F939F93AF93BF93EF93FF93E091B2
S1130BC06000F0916100E230F10509F00995FF91B0
S1130BD0EF91BF91AF919F918F917F916F915F91B1
S1130BE04F913F912F910F900FBE0F901F9018952A
S1130BF00F931F93CF938C01C0E0F801EC0FF11D0C
S1130C008081882321F00E949305CF5FF6CF80E294
S1130C108083CF911F910F910C9493059091D000F4
S1130C20943151F0E92FF0E0EF52FF4F80839F5F42
S1130C309093D00082E0089580E00895E091D00080
S1130C40EE2359F0E150E093D000F0E0EF52FF4F73
S1130C502081FC01208382E0089581E00895A1E2CF
S1130C601A2EAA1BBB1BFD010DC0AA1FBB1FEE1F22
S1130C70FF1FA217B307E407F50720F0A21BB30B6D
S1130C80E40BF50B661F771F881F991F1A9469F7E9
S1130C9060957095809590959B01AC01BD01CF0145
S1130CA00895A29FB001B39FC001A39F700D811D41
S1130CB01124911DB29F700D811D1124911D089561
S1070CC0F894FFCFD2
S1130CC40200020001000000000000010200000014
S1130CD40000010002000000000000000100020204
S1130CE4000001005541525400537461636B206940
S1130CF4732046756C6C00446174612069732070C0
S1130D047573686564005361636B20697320456D72
S1130D14707479004461746120697320706F707019
S1070D2465640000FE
S9030000FC
