:100000000C942A000C9447000C9447000C94470071
:100010000C9447000C9447000C948A040C94380408
:100020000C9461040C940F040C9484010C945A01F8
:100030000C9447000C94B9040C9447000C94E3040E
:100040000C9447000C9447000C9447000C94470014
:100050000C94470011241FBECFE5D8E0DEBFCDBF12
:1000600010E0A0E6B0E0E0E8FAE002C005900D92F2
:10007000A438B107D9F720E0A4E8B0E001C01D9290
:10008000AF38B207E1F70E94E3000C943E050C94F0
:100090000000CF93C4E161E08C2F0E94AC02CF5FDF
:1000A000C831C9F7CF910895CF93C82F60E081E0A0
:1000B0000E94AC026C2F661F6627661F86E00E94B6
:1000C000AC02C6FB662760F985E00E94AC02C5FB66
:1000D000662760F984E00E94AC02C4FB662760F9E1
:1000E00083E00E94AC0261E082E00E94AC028FECEF
:1000F00097E00197F1F700C0000060E082E00E9405
:10010000AC028FEC97E00197F1F700C00000C3FB51
:10011000662760F986E00E94AC02C2FB662760F9A0
:1001200085E00E94AC02C1FB662760F984E00E9472
:10013000AC026C2F617083E00E94AC0261E082E04F
:100140000E94AC028FEC97E00197F1F700C000002D
:1001500060E082E00E94AC028FEC97E00197F1F73B
:1001600000C00000CF9108952FE788E391E021506F
:1001700080409040E1F700C0000082E00E945400FF
:1001800088E20E9454008CE00E94540081E00E94AA
:1001900054008FEC97E00197F1F700C0000086E073
:1001A0000C945400282F30E0A8EEB3E00E942F05F5
:1001B00024EB30E040E050E00E940D0529513C4F17
:1001C00039BD28BD08950E94CE010E94B4000E944E
:1001D000490066E081E00E94B9010E94B30462E038
:1001E00080E00E94570363E081E00E945703789407
:1001F00082E083BF62E084E00E949D0382E00E946F
:10020000D90382E00E94F40387EE93E09BBD8ABD90
:1002100080E00E94D2002FEF89E698E121508040D3
:100220009040E1F700C000008AE090E09BBD8ABDED
:100230002FEF89E698E1215080409040E1F700C01F
:1002400000008CE390E09BBD8ABD2FEF89E698E12A
:10025000215080409040E1F700C0000080EA90E02B
:100260009BBD8ABD2FEF89E698E1215080409040E8
:10027000E1F700C0000088EC90E09BBD8ABD2FEF45
:1002800089E698E1215080409040E1F700C00000ED
:100290008AEF90E09BBD8ABD2FEF89E698E121505F
:1002A00080409040E1F700C000008CE291E09BBDEF
:1002B0008ABDFFCF1F920F920FB60F9211242F937A
:1002C0003F934F935F936F937F938F939F93AF93DE
:1002D000BF93EF93FF93809186008F5F809386009A
:1002E00088E10E944A03FF91EF91BF91AF919F91E6
:1002F0008F917F916F915F914F913F912F910F90CF
:100300000FBE0F901F9018951F920F920FB60F926D
:1003100011242F933F934F935F936F937F938F930A
:100320009F93AF93BF93EF93FF9389E10E944A039A
:10033000809184000E94D200809184009091850079
:10034000099690938500809384008CB7875F8CBF5B
:10035000FF91EF91BF91AF919F918F917F916F919D
:100360005F914F913F912F910F900FBE0F901F9073
:100370001895813041F028F0823039F43E9A3F9A46
:1003800004C03E9801C03E9A3F9886B1887F86B9E6
:1003900086B16770682B66B9379A0895E4E6F0E095
:1003A00040E081E090E05191342F369536953695B6
:1003B000242F2770513009F443C020F0523009F443
:1003C00082C0C5C0323001F1333061F1313071F09B
:1003D0005AB3BC0102C0660F771F2A95E2F79B0152
:1003E000352F322B3ABB3BB320953DC057B3BC01F0
:1003F00002C0660F771F2A95E2F79B01352F322B3B
:1004000037BB38B320953EC054B3BC0102C0660F61
:10041000771F2A95E2F79B01352F322B34BB35B37A
:1004200020953FC051B3BC0102C0660F771F2A95CB
:10043000E2F79B01352F322B31BB32B3209541C0FF
:10044000323011F1333081F1313079F05AB3BC01DF
:1004500002C0660F771F2A95E2F79B012095352F82
:1004600032233ABB3BB3232342C057B3BC0102C083
:10047000660F771F2A95E2F79B012095352F3223CF
:1004800037BB38B3232343C054B3BC0102C0660F4B
:10049000771F2A95E2F79B012095352F322334BB35
:1004A00035B3232325BB53C051B3BC0102C0660F33
:1004B000771F2A95E2F79B012095352F322331BB18
:1004C00032B3232343C0323021F1333089F131304C
:1004D00081F05AB3BC0102C0660F771F2A95E2F77C
:1004E0009B01362F309535233ABB3BB3232B2BBBD7
:1004F0002EC057B3BC0102C0660F771F2A95E2F7E2
:100500009B01362F3095352337BB38B3232B28BBBF
:100510001EC054B3BC0102C0660F771F2A95E2F7D4
:100520009B01362F3095352334BB35B3232BBACFFF
:1005300051B3BC0102C0660F771F2A95E2F79B01F9
:10054000362F3095352331BB32B3232B22BB4F5F7F
:10055000403209F028CF0895982F96959695969554
:1005600087706130C1F5913091F028F09230D9F068
:10057000933029F108954BB321E030E0B90102C076
:10058000660F771F8A95E2F7CB01842B3AC048B3F8
:1005900021E030E0B90102C0660F771F8A95E2F7CB
:1005A000CB01842B3CC045B321E030E0B90102C04F
:1005B000660F771F8A95E2F7CB01842B3EC042B3CA
:1005C00021E030E0B90102C0660F771F8A95E2F79B
:1005D000CB01842B40C061113FC09130A1F028F0C5
:1005E0009230F9F0933059F108954BB321E030E0A7
:1005F000B90102C0660F771F8A95E2F7CB0180959B
:1006000084238BBB089548B321E030E0B90102C0D8
:10061000660F771F8A95E2F7CB018095842388BB0C
:10062000089545B321E030E0B90102C0660F771F9D
:100630008A95E2F7CB018095842385BB089542B368
:1006400021E030E0B90102C0660F771F8A95E2F71A
:10065000CB018095842382BB0895282F277086952F
:1006600086958695813049F030F0823041F08330B4
:1006700079F480B305C089B303C086B301C083B3E6
:1006800090E002C0959587952A95E2F7982F917092
:10069000892F0895CF93C82F0E942D03813011F424
:1006A00060E001C061E08C2FCF910C94AC028130EE
:1006B000F1F018F08230B1F10895613049F028F07E
:1006C000623061F0633069F0089585B78E7F02C0B3
:1006D00085B7816085BF85B78D7F22C085B78E7F46
:1006E00002C085B7816085BF85B7826019C061305F
:1006F00049F028F0623061F0633069F0089585B701
:100700008B7F02C085B7846085BF85B7877F08C0AF
:1007100085B78B7F02C085B7846085BF85B7886049
:1007200085BF0895623029F0633019F484B780647E
:1007300002C084B78F7B84BF08958230D9F050F413
:10074000882379F0813071F58FB58E7F8FBD8FB59D
:100750008D7F21C08330D1F0843021F58FB5816049
:1007600017C08FB58E7F8FBD8FB58D7F8FBD8EB536
:10077000877F08C08FB58E7F8FBD8FB58D7F8FBD72
:100780008EB588608EBD8EB58F7E0BC08FB58E7F87
:100790008FBD8FB582608FBD8EB588608EBD8EB5E2
:1007A00080618EBD8EB5887F8EBD8EB5682B6EBD87
:1007B0000895813049F028F0823061F0833069F08B
:1007C00008958FB58F7B02C08FB580648FBD8FB5C4
:1007D0008F7708C08FB58F7B02C08FB580648FBDC7
:1007E0008FB580688FBD0895813049F028F0823040
:1007F00061F0833069F008958FB58F7E02C08FB5A8
:1008000080618FBD8FB58F7D08C08FB58F7E02C090
:100810008FB580618FBD8FB580628FBD08951F92A7
:100820000F920FB60F9211242F933F934F935F9324
:100830006F937F938F939F93AF93BF93EF93FF93A8
:10084000E0918D00F0918E00309709F00995FF91AD
:10085000EF91BF91AF919F918F917F916F915F9138
:100860004F913F912F910F900FBE0F901F901895B1
:100870001F920F920FB60F9211242F933F934F9315
:100880005F936F937F938F939F93AF93BF93EF93F8
:10089000FF93E0918B00F0918C00309709F009955F
:1008A000FF91EF91BF91AF919F918F917F916F9148
:1008B0005F914F913F912F910F900FBE0F901F901E
:1008C00018951F920F920FB60F9211242F933F93FA
:1008D0004F935F936F937F938F939F93AF93BF9348
:1008E000EF93FF93E0918900F0918A00309709F02F
:1008F0000995FF91EF91BF91AF919F918F917F915A
:100900006F915F914F913F912F910F900FBE0F907C
:100910001F9018951F920F920FB60F9211242F93CC
:100920003F934F935F936F937F938F939F93AF9377
:10093000BF93EF93FF93E0918700F0918800309789
:1009400009F00995FF91EF91BF91AF919F918F9120
:100950007F916F915F914F913F912F910F900FBEBB
:100960000F901F90189583E389B95998539A549A18
:1009700008951F920F920FB60F9211242F933F9359
:100980004F935F936F937F938F939F93AF93BF9397
:10099000EF93FF93E0916200F0916300E230F10584
:1009A00009F00995FF91EF91BF91AF919F918F91C0
:1009B0007F916F915F914F913F912F910F900FBE5B
:1009C0000F901F9018951F920F920FB60F9211243F
:1009D0002F933F934F935F936F937F938F939F9347
:1009E000AF93BF93EF93FF93E0916000F0916100AC
:1009F000E230F10509F00995FF91EF91BF91AF91B8
:100A00009F918F917F916F915F914F913F912F9126
:100A10000F900FBE0F901F901895A1E21A2EAA1BDF
:100A2000BB1BFD010DC0AA1FBB1FEE1FFF1FA2179E
:100A3000B307E407F50720F0A21BB30BE40BF50B9B
:100A4000661F771F881F991F1A9469F76095709524
:100A5000809590959B01AC01BD01CF010895A29FA7
:100A6000B001B39FC001A39F700D811D1124911D82
:100A7000B29F700D811D1124911D0895F894FFCF30
:100A8000020002000100000000000001020000005E
:100A9000000001000200000000000000010002024E
:040AA0000000000052
:00000001FF
