S00B00004144432E7372656351
S11300000C942A000C943F000C943F000C943F0085
S11300100C943F000C943F000C943F000C943F0060
S11300200C943F000C943F000C943F000C943F0050
S11300300C943F000C943F000C943F000C943F0040
S11300400C943F000C943F000C943F000C943F0030
S11300500C943F0011241FBECFE5D8E0DEBFCDBF16
S113006010E0A0E6B0E0E0E2FAE002C005900D92F4
S1130070A639B107D9F70E94FC010C940E050C9423
S11300800000CF93CCE061E08C2F0E943D04CF5F51
S1130090C031C9F7CF910895CF93C82F60E081E0B4
S11300A00E943D046C2F661F6627661F86E00E942F
S11300B03D04C6FB662760F985E00E943D04C5FB4C
S11300C0662760F984E00E943D04C4FB662760F95A
S11300D083E00E943D0461E082E00E943D048FECD5
S11300E097E00197F1F700C0000060E082E00E9411
S11300F03D048FEC97E00197F1F700C00000C3FBCB
S1130100662760F986E00E943D04C2FB662760F919
S113011085E00E943D04C1FB662760F984E00E94EB
S11301203D046C2F617083E00E943D0461E082E035
S11301300E943D048FEC97E00197F1F700C00000A6
S113014060E082E00E943D048FEC97E00197F1F7B4
S113015000C00000CF910895CF93C82F61E081E0E3
S11301600E943D046C2F661F6627661F86E00E946E
S11301703D04C6FB662760F985E00E943D04C5FB8B
S1130180662760F984E00E943D04C4FB662760F999
S113019083E00E943D0461E082E00E943D048FEC14
S11301A097E00197F1F700C0000060E082E00E9450
S11301B03D048FEC97E00197F1F700C00000C3FB0A
S11301C0662760F986E00E943D04C2FB662760F959
S11301D085E00E943D04C1FB662760F984E00E942B
S11301E03D046C2F617083E00E943D0461E082E075
S11301F00E943D048FEC97E00197F1F700C00000E6
S113020060E082E00E943D048FEC97E00197F1F7F3
S113021000C00000CF9108952FE788E391E02150BA
S113022080409040E1F700C0000082E00E944C0052
S113023088E20E944C008CE00E944C0081E00E9405
S11302404C008FEC97E00197F1F700C0000086E0C6
S11302500C944C000C94AC000F931F93CF938C011F
S1130260C0E0F801EC0FF11D8081882321F00E9489
S1130270AC00CF5FF6CFCF911F910F910895CF932C
S1130280DF93CDB7DEB72A970FB6F894DEBF0FBE63
S1130290CDBFAE014F5F5F4F0E948D01CE0101962D
S11302A00E942C012A960FB6F894DEBF0FBECDBF74
S11302B0DF91CF910895813011F48FE703C082302C
S11302C021F48FEB860F0C944C0008959C0180E080
S11302D0F901E80FF11D9081992311F08F5FF8CF98
S11302E00895CF93DF93EC010E94660190E09E0194
S11302F0280F391FFE01959587958C0F9D1FE817D0
S1130300F90741F0408121503109D9015C915193A1
S11303104C93F5CFDF91CF9108958F929F92AF9236
S1130320BF92DF92EF92FF920F931F93CF93DF93CD
S1130330EA01611571058105910579F480E38883EB
S11303401982DF91CF911F910F91FF90EF90DF9071
S1130350BF90AF909F908F90089500E010E02AE046
S1130360822E912CA12CB12C3DE2D32E97FF1FC0DD
S113037090958095709561957F4F8F4F9F4F7E012B
S1130380A50194010E94E004605DF70161937F017F
S1130390B901CA018F010C1B1D0B61157105810583
S11303A0910571F7FE01E00FF11FD0820CC07E01B0
S11303B0E00EF11EA50194010E94E004605DF701C6
S11303C06083B901CA010F5F1F4F61157105810573
S11303D0910561F6FE01E00FF11F1082CE01DF915D
S11303E0CF911F910F91FF90EF90DF90BF90AF904E
S11303F09F908F900C9471010E945F030E940C01E6
S11304000E94410066E081E00E942D0361E080E1EA
S11304100E943D042FEF81E19AE7215080409040F3
S1130420E1F700C00000CC24CA9483E0D82EE12C6C
S1130430F12C87E00E9442038C0161E081E00E947C
S11304405B0180E890E00E942C01B80180E090E01C
S11304500E943F0189E890E00E942C0187E00E94FD
S11304604E03EC0161E082E00E945B018DE890E0C4
S11304700E942C0168E082E00E945B01BE0180E0E2
S113048090E00E943F0189E890E00E942C016EE018
S113049082E00E945B019801A4E6B0E00E94FF04A0
S11304A0A70196010E94BE04CA01B9010E943F013E
S11304B085E20E942A0189E890E00E942C01C03C58
S11304C022E1D207F0F061E080E10E943D0461E0A6
S11304D081E10E943D0461E082E10E943D0461E00B
S11304E083E10E943D0461E084E10E943D0461E0F7
S11304F085E10E943D0461E086E10E943D0461E0E3
S1130500A8C0CE01815C9141803A9140D0F461E071
S113051080E10E943D0461E081E10E943D0461E0CC
S113052082E10E943D0461E083E10E943D0461E0B8
S113053084E10E943D0461E085E10E943D0461E0A4
S113054084C0CE01855490418D379140B0F461E070
S113055080E10E943D0461E081E10E943D0461E08C
S113056082E10E943D0461E083E10E943D0461E078
S113057084E10E943D0461E064C0CE0182509D404C
S11305808434934090F461E080E10E943D0461E092
S113059081E10E943D0461E082E10E943D0461E04A
S11305A083E10E943D0461E048C0CE01845C99402F
S11305B08F33934070F461E080E10E943D0461E078
S11305C081E10E943D0461E082E10E943D0461E01A
S11305D030C0CE01815896408434934050F461E099
S11305E080E10E943D0461E081E10E943D0461E0FC
S11305F01CC0CE01825493408034934030F461E0B7
S113060080E10E943D0461E00CC0C65CD140CD375E
S1130610D14010F461E001C060E080E10E943D043B
S113062060E081E10E943D0460E082E10E943D04BB
S113063060E083E10E943D0460E084E10E943D04A7
S113064060E085E10E943D0460E086E10E943D0493
S113065060E087E10E943D04ECCE813041F028F057
S1130660823039F43E9A3F9A04C03E9801C03E9AC3
S11306703F9886B1887F86B986B16770682B66B962
S1130680379A089597B1907E97B997B1892B87B916
S1130690369A3699FECF84B195B108950E944203EB
S11306A09C01A8E8B3E10E94FF04DC01CB012AE02D
S11306B0B695A795979587952A95D1F70895E0E67D
S11306C0F0E040E081E090E05191342F369536958A
S11306D03695242F2770513009F443C020F052304E
S11306E009F482C0C5C0323001F1333061F13130D8
S11306F071F05AB3BC0102C0660F771F2A95E2F766
S11307009B01352F322B3ABB3BB320953DC057B3E9
S1130710BC0102C0660F771F2A95E2F79B01352FB3
S1130720322B37BB38B320953EC054B3BC0102C052
S1130730660F771F2A95E2F79B01352F322B34BBC6
S113074035B320953FC051B3BC0102C0660F771F7B
S11307502A95E2F79B01352F322B31BB32B320951A
S113076041C0323011F1333081F1313079F05AB374
S1130770BC0102C0660F771F2A95E2F79B01209502
S1130780352F32233ABB3BB3232342C057B3BC01BA
S113079002C0660F771F2A95E2F79B012095352F3B
S11307A0322337BB38B3232343C054B3BC0102C044
S11307B0660F771F2A95E2F79B012095352F322388
S11307C034BB35B3232325BB53C051B3BC0102C092
S11307D0660F771F2A95E2F79B012095352F322368
S11307E031BB32B3232343C0323021F1333089F19A
S11307F0313081F05AB3BC0102C0660F771F2A95CD
S1130800E2F79B01362F309535233ABB3BB3232BBC
S11308102BBB2EC057B3BC0102C0660F771F2A95AD
S1130820E2F79B01362F3095352337BB38B3232BA2
S113083028BB1EC054B3BC0102C0660F771F2A95A3
S1130840E2F79B01362F3095352334BB35B3232B88
S1130850BACF51B3BC0102C0660F771F2A95E2F7E5
S11308609B01362F3095352331BB32B3232B22BB6A
S11308704F5F403209F028CF0895982F96959695AA
S1130880969587706130C1F5913091F028F09230DF
S1130890D9F0933029F108954BB321E030E0B90148
S11308A002C0660F771F8A95E2F7CB01842B3AC00A
S11308B048B321E030E0B90102C0660F771F8A9582
S11308C0E2F7CB01842B3CC045B321E030E0B90111
S11308D002C0660F771F8A95E2F7CB01842B3EC0D6
S11308E042B321E030E0B90102C0660F771F8A9558
S11308F0E2F7CB01842B40C061113FC09130A1F0DD
S113090028F09230F9F0933059F108954BB321E077
S113091030E0B90102C0660F771F8A95E2F7CB0178
S1130920809584238BBB089548B321E030E0B9015E
S113093002C0660F771F8A95E2F7CB018095842366
S113094088BB089545B321E030E0B90102C0660FC9
S1130950771F8A95E2F7CB018095842385BB0895A0
S113096042B321E030E0B90102C0660F771F8A95D7
S1130970E2F7CB018095842382BB0895A1E21A2E6D
S1130980AA1BBB1BFD010DC0AA1FBB1FEE1FFF1F2F
S1130990A217B307E407F50720F0A21BB30BE40B7F
S11309A0F50B661F771F881F991F1A9469F76095C6
S11309B07095809590959B01AC01BD01CF01089580
S11309C0052E97FB1EF400940E94F70457FD07D0F0
S11309D00E94BE0407FC03D04EF40C94F704509517
S11309E04095309521953F4F4F4F5F4F0895909517
S11309F08095709561957F4F8F4F9F4F0895A29F6B
S1130A00B001B39FC001A39F700D811D1124911DDE
S1130A10B29F700D811D1124911D0895F894FFCF8C
S1130A2001000000000000010000000000000000C0
S1130A3000000000000000000000020202020000AA
S1130A40416E616C6F673A200020202000566F6C65
S1090A5074203D200000AB
S9030000FC
